{
	"contracts/SingleSwap.sol": {
		"SingleSwap": {
			"abi": [
				{
					"inputs": [],
					"name": "LINK",
					"outputs": [
						{
							"internalType": "address",
							"name": "",
							"type": "address"
						}
					],
					"stateMutability": "view",
					"type": "function"
				},
				{
					"inputs": [],
					"name": "WETH",
					"outputs": [
						{
							"internalType": "address",
							"name": "",
							"type": "address"
						}
					],
					"stateMutability": "view",
					"type": "function"
				},
				{
					"inputs": [],
					"name": "linktoken",
					"outputs": [
						{
							"internalType": "contract IERC20",
							"name": "",
							"type": "address"
						}
					],
					"stateMutability": "view",
					"type": "function"
				},
				{
					"inputs": [],
					"name": "poolFee",
					"outputs": [
						{
							"internalType": "uint24",
							"name": "",
							"type": "uint24"
						}
					],
					"stateMutability": "view",
					"type": "function"
				},
				{
					"inputs": [],
					"name": "routerAddress",
					"outputs": [
						{
							"internalType": "address",
							"name": "",
							"type": "address"
						}
					],
					"stateMutability": "view",
					"type": "function"
				},
				{
					"inputs": [
						{
							"internalType": "uint256",
							"name": "amountIn",
							"type": "uint256"
						}
					],
					"name": "swapExactInputSingle",
					"outputs": [
						{
							"internalType": "uint256",
							"name": "amountOut",
							"type": "uint256"
						}
					],
					"stateMutability": "payable",
					"type": "function"
				},
				{
					"inputs": [
						{
							"internalType": "uint256",
							"name": "amountOut",
							"type": "uint256"
						},
						{
							"internalType": "uint256",
							"name": "amountInMaximum",
							"type": "uint256"
						}
					],
					"name": "swapExactOutputSingle",
					"outputs": [
						{
							"internalType": "uint256",
							"name": "amountIn",
							"type": "uint256"
						}
					],
					"stateMutability": "nonpayable",
					"type": "function"
				},
				{
					"inputs": [],
					"name": "swapRouter",
					"outputs": [
						{
							"internalType": "contract ISwapRouter",
							"name": "",
							"type": "address"
						}
					],
					"stateMutability": "view",
					"type": "function"
				}
			],
			"devdoc": {
				"kind": "dev",
				"methods": {
					"swapExactInputSingle(uint256)": {
						"details": "The calling address must approve this contract to spend at least `amountIn` worth of its LINK for this function to succeed.",
						"params": {
							"amountIn": "The exact amount of LINK that will be swapped for WETH."
						},
						"returns": {
							"amountOut": "The amount of WETH received."
						}
					},
					"swapExactOutputSingle(uint256,uint256)": {
						"details": "The calling address must approve this contract to spend its LINK for this function to succeed. As the amount of input LINK is variable, the calling address will need to approve for a slightly higher amount, anticipating some variance.",
						"params": {
							"amountInMaximum": "The amount of LINK we are willing to spend to receive the specified amount of WETH.",
							"amountOut": "The exact amount of WETH to receive from the swap."
						},
						"returns": {
							"amountIn": "The amount of LINK actually spent in the swap."
						}
					}
				},
				"version": 1
			},
			"evm": {
				"assembly": "    /* \"contracts/SingleSwap.sol\":614:5251  contract SingleSwap {... */\n  mstore(0x40, 0xa0)\n    /* \"contracts/SingleSwap.sol\":1214:1256  0xE592427A0AEce92De3Edee1F18E0157C05861564 */\n  0xe592427a0aece92de3edee1f18e0157c05861564\n    /* \"contracts/SingleSwap.sol\":1160:1257  ISwapRouter public immutable swapRouter = ISwapRouter(0xE592427A0AEce92De3Edee1F18E0157C05861564) */\n  0xffffffffffffffffffffffffffffffffffffffff\n  and\n  0x80\n  swap1\n  0xffffffffffffffffffffffffffffffffffffffff\n  and\n  dup2\n  mstore\n  pop\n    /* \"contracts/SingleSwap.sol\":1395:1437  0x326C977E6efc84E512bB9C30f76E30c160eD06FB */\n  0x326c977e6efc84e512bb9c30f76e30c160ed06fb\n    /* \"contracts/SingleSwap.sol\":1523:1561  IERC20 public linktoken = IERC20(LINK) */\n  0x00\n  dup1\n  0x0100\n  exp\n  dup2\n  sload\n  dup2\n  0xffffffffffffffffffffffffffffffffffffffff\n  mul\n  not\n  and\n  swap1\n  dup4\n  0xffffffffffffffffffffffffffffffffffffffff\n  and\n  mul\n  or\n  swap1\n  sstore\n  pop\n    /* \"contracts/SingleSwap.sol\":614:5251  contract SingleSwap {... */\n  callvalue\n  dup1\n  iszero\n  tag_1\n  jumpi\n  0x00\n  dup1\n  revert\ntag_1:\n  pop\n  mload(0x80)\n  codecopy(0x00, dataOffset(sub_0), dataSize(sub_0))\n  0x00\n  assignImmutable(\"0xc5bf1d490d2f4e87cc1d5184cd59114bcef0e857ac09f6d840a1caed5b52d973\")\n  return(0x00, dataSize(sub_0))\nstop\n\nsub_0: assembly {\n        /* \"contracts/SingleSwap.sol\":614:5251  contract SingleSwap {... */\n      mstore(0x40, 0x80)\n      jumpi(tag_1, lt(calldatasize, 0x04))\n      shr(0xe0, calldataload(0x00))\n      dup1\n      0x73bd43ad\n      gt\n      tag_10\n      jumpi\n      dup1\n      0x73bd43ad\n      eq\n      tag_6\n      jumpi\n      dup1\n      0xad5c4648\n      eq\n      tag_7\n      jumpi\n      dup1\n      0xc31c9c07\n      eq\n      tag_8\n      jumpi\n      dup1\n      0xc4b69a18\n      eq\n      tag_9\n      jumpi\n      jump(tag_1)\n    tag_10:\n      dup1\n      0x089fe6aa\n      eq\n      tag_2\n      jumpi\n      dup1\n      0x1b6b6d23\n      eq\n      tag_3\n      jumpi\n      dup1\n      0x2ae7543f\n      eq\n      tag_4\n      jumpi\n      dup1\n      0x3268cc56\n      eq\n      tag_5\n      jumpi\n    tag_1:\n      0x00\n      dup1\n      revert\n        /* \"contracts/SingleSwap.sol\":1627:1664  uint24 public constant poolFee = 3000 */\n    tag_2:\n      callvalue\n      dup1\n      iszero\n      tag_11\n      jumpi\n      0x00\n      dup1\n      revert\n    tag_11:\n      pop\n      tag_12\n      tag_13\n      jump\t// in\n    tag_12:\n      mload(0x40)\n      tag_14\n      swap2\n      swap1\n      tag_15\n      jump\t// in\n    tag_14:\n      mload(0x40)\n      dup1\n      swap2\n      sub\n      swap1\n      return\n        /* \"contracts/SingleSwap.sol\":1364:1437  address public constant LINK = 0x326C977E6efc84E512bB9C30f76E30c160eD06FB */\n    tag_3:\n      callvalue\n      dup1\n      iszero\n      tag_16\n      jumpi\n      0x00\n      dup1\n      revert\n    tag_16:\n      pop\n      tag_17\n      tag_18\n      jump\t// in\n    tag_17:\n      mload(0x40)\n      tag_19\n      swap2\n      swap1\n      tag_20\n      jump\t// in\n    tag_19:\n      mload(0x40)\n      dup1\n      swap2\n      sub\n      swap1\n      return\n        /* \"contracts/SingleSwap.sol\":1523:1561  IERC20 public linktoken = IERC20(LINK) */\n    tag_4:\n      callvalue\n      dup1\n      iszero\n      tag_21\n      jumpi\n      0x00\n      dup1\n      revert\n    tag_21:\n      pop\n      tag_22\n      tag_23\n      jump\t// in\n    tag_22:\n      mload(0x40)\n      tag_24\n      swap2\n      swap1\n      tag_25\n      jump\t// in\n    tag_24:\n      mload(0x40)\n      dup1\n      swap2\n      sub\n      swap1\n      return\n        /* \"contracts/SingleSwap.sol\":1072:1154  address public constant routerAddress = 0xE592427A0AEce92De3Edee1F18E0157C05861564 */\n    tag_5:\n      callvalue\n      dup1\n      iszero\n      tag_26\n      jumpi\n      0x00\n      dup1\n      revert\n    tag_26:\n      pop\n      tag_27\n      tag_28\n      jump\t// in\n    tag_27:\n      mload(0x40)\n      tag_29\n      swap2\n      swap1\n      tag_20\n      jump\t// in\n    tag_29:\n      mload(0x40)\n      dup1\n      swap2\n      sub\n      swap1\n      return\n        /* \"contracts/SingleSwap.sol\":2135:3200  function swapExactInputSingle(uint256 amountIn) external payable returns (uint256 amountOut) {... */\n    tag_6:\n      tag_30\n      0x04\n      dup1\n      calldatasize\n      sub\n      dup2\n      add\n      swap1\n      tag_31\n      swap2\n      swap1\n      tag_32\n      jump\t// in\n    tag_31:\n      tag_33\n      jump\t// in\n    tag_30:\n      mload(0x40)\n      tag_34\n      swap2\n      swap1\n      tag_35\n      jump\t// in\n    tag_34:\n      mload(0x40)\n      dup1\n      swap2\n      sub\n      swap1\n      return\n        /* \"contracts/SingleSwap.sol\":1443:1516  address public constant WETH = 0xB4FBF271143F4FBf7B91A5ded31805e42b2208d6 */\n    tag_7:\n      callvalue\n      dup1\n      iszero\n      tag_36\n      jumpi\n      0x00\n      dup1\n      revert\n    tag_36:\n      pop\n      tag_37\n      tag_38\n      jump\t// in\n    tag_37:\n      mload(0x40)\n      tag_39\n      swap2\n      swap1\n      tag_20\n      jump\t// in\n    tag_39:\n      mload(0x40)\n      dup1\n      swap2\n      sub\n      swap1\n      return\n        /* \"contracts/SingleSwap.sol\":1160:1257  ISwapRouter public immutable swapRouter = ISwapRouter(0xE592427A0AEce92De3Edee1F18E0157C05861564) */\n    tag_8:\n      callvalue\n      dup1\n      iszero\n      tag_40\n      jumpi\n      0x00\n      dup1\n      revert\n    tag_40:\n      pop\n      tag_41\n      tag_42\n      jump\t// in\n    tag_41:\n      mload(0x40)\n      tag_43\n      swap2\n      swap1\n      tag_44\n      jump\t// in\n    tag_43:\n      mload(0x40)\n      dup1\n      swap2\n      sub\n      swap1\n      return\n        /* \"contracts/SingleSwap.sol\":3831:5249  function swapExactOutputSingle(uint256 amountOut, uint256 amountInMaximum) external returns (uint256 amountIn) {... */\n    tag_9:\n      callvalue\n      dup1\n      iszero\n      tag_45\n      jumpi\n      0x00\n      dup1\n      revert\n    tag_45:\n      pop\n      tag_46\n      0x04\n      dup1\n      calldatasize\n      sub\n      dup2\n      add\n      swap1\n      tag_47\n      swap2\n      swap1\n      tag_48\n      jump\t// in\n    tag_47:\n      tag_49\n      jump\t// in\n    tag_46:\n      mload(0x40)\n      tag_50\n      swap2\n      swap1\n      tag_35\n      jump\t// in\n    tag_50:\n      mload(0x40)\n      dup1\n      swap2\n      sub\n      swap1\n      return\n        /* \"contracts/SingleSwap.sol\":1627:1664  uint24 public constant poolFee = 3000 */\n    tag_13:\n        /* \"contracts/SingleSwap.sol\":1660:1664  3000 */\n      0x0bb8\n        /* \"contracts/SingleSwap.sol\":1627:1664  uint24 public constant poolFee = 3000 */\n      dup2\n      jump\t// out\n        /* \"contracts/SingleSwap.sol\":1364:1437  address public constant LINK = 0x326C977E6efc84E512bB9C30f76E30c160eD06FB */\n    tag_18:\n        /* \"contracts/SingleSwap.sol\":1395:1437  0x326C977E6efc84E512bB9C30f76E30c160eD06FB */\n      0x326c977e6efc84e512bb9c30f76e30c160ed06fb\n        /* \"contracts/SingleSwap.sol\":1364:1437  address public constant LINK = 0x326C977E6efc84E512bB9C30f76E30c160eD06FB */\n      dup2\n      jump\t// out\n        /* \"contracts/SingleSwap.sol\":1523:1561  IERC20 public linktoken = IERC20(LINK) */\n    tag_23:\n      0x00\n      dup1\n      sload\n      swap1\n      0x0100\n      exp\n      swap1\n      div\n      0xffffffffffffffffffffffffffffffffffffffff\n      and\n      dup2\n      jump\t// out\n        /* \"contracts/SingleSwap.sol\":1072:1154  address public constant routerAddress = 0xE592427A0AEce92De3Edee1F18E0157C05861564 */\n    tag_28:\n        /* \"contracts/SingleSwap.sol\":1112:1154  0xE592427A0AEce92De3Edee1F18E0157C05861564 */\n      0xe592427a0aece92de3edee1f18e0157c05861564\n        /* \"contracts/SingleSwap.sol\":1072:1154  address public constant routerAddress = 0xE592427A0AEce92De3Edee1F18E0157C05861564 */\n      dup2\n      jump\t// out\n        /* \"contracts/SingleSwap.sol\":2135:3200  function swapExactInputSingle(uint256 amountIn) external payable returns (uint256 amountOut) {... */\n    tag_33:\n        /* \"contracts/SingleSwap.sol\":2209:2226  uint256 amountOut */\n      0x00\n        /* \"contracts/SingleSwap.sol\":2333:2342  linktoken */\n      dup1\n      0x00\n      swap1\n      sload\n      swap1\n      0x0100\n      exp\n      swap1\n      div\n      0xffffffffffffffffffffffffffffffffffffffff\n      and\n        /* \"contracts/SingleSwap.sol\":2333:2350  linktoken.approve */\n      0xffffffffffffffffffffffffffffffffffffffff\n      and\n      0x095ea7b3\n        /* \"contracts/SingleSwap.sol\":2359:2369  swapRouter */\n      immutable(\"0xc5bf1d490d2f4e87cc1d5184cd59114bcef0e857ac09f6d840a1caed5b52d973\")\n        /* \"contracts/SingleSwap.sol\":2372:2380  amountIn */\n      dup5\n        /* \"contracts/SingleSwap.sol\":2333:2381  linktoken.approve(address(swapRouter), amountIn) */\n      mload(0x40)\n      dup4\n      0xffffffff\n      and\n      0xe0\n      shl\n      dup2\n      mstore\n      0x04\n      add\n      tag_52\n      swap3\n      swap2\n      swap1\n      tag_53\n      jump\t// in\n    tag_52:\n      0x20\n      mload(0x40)\n      dup1\n      dup4\n      sub\n      dup2\n      0x00\n      dup8\n      gas\n      call\n      iszero\n      dup1\n      iszero\n      tag_55\n      jumpi\n      returndatasize\n      0x00\n      dup1\n      returndatacopy\n      revert(0x00, returndatasize)\n    tag_55:\n      pop\n      pop\n      pop\n      pop\n      mload(0x40)\n      returndatasize\n      not(0x1f)\n      0x1f\n      dup3\n      add\n      and\n      dup3\n      add\n      dup1\n      0x40\n      mstore\n      pop\n      dup2\n      add\n      swap1\n      tag_56\n      swap2\n      swap1\n      tag_57\n      jump\t// in\n    tag_56:\n      pop\n        /* \"contracts/SingleSwap.sol\":2629:2677  ISwapRouter.ExactInputSingleParams memory params */\n      0x00\n        /* \"contracts/SingleSwap.sol\":2692:3074  ISwapRouter.ExactInputSingleParams({... */\n      mload(0x40)\n      dup1\n      0x0100\n      add\n      0x40\n      mstore\n      dup1\n        /* \"contracts/SingleSwap.sol\":1395:1437  0x326C977E6efc84E512bB9C30f76E30c160eD06FB */\n      0x326c977e6efc84e512bb9c30f76e30c160ed06fb\n        /* \"contracts/SingleSwap.sol\":2692:3074  ISwapRouter.ExactInputSingleParams({... */\n      0xffffffffffffffffffffffffffffffffffffffff\n      and\n      dup2\n      mstore\n      0x20\n      add\n        /* \"contracts/SingleSwap.sol\":1474:1516  0xB4FBF271143F4FBf7B91A5ded31805e42b2208d6 */\n      0xb4fbf271143f4fbf7b91a5ded31805e42b2208d6\n        /* \"contracts/SingleSwap.sol\":2692:3074  ISwapRouter.ExactInputSingleParams({... */\n      0xffffffffffffffffffffffffffffffffffffffff\n      and\n      dup2\n      mstore\n      0x20\n      add\n        /* \"contracts/SingleSwap.sol\":1660:1664  3000 */\n      0x0bb8\n        /* \"contracts/SingleSwap.sol\":2692:3074  ISwapRouter.ExactInputSingleParams({... */\n      0xffffff\n      and\n      dup2\n      mstore\n      0x20\n      add\n        /* \"contracts/SingleSwap.sol\":2857:2861  this */\n      address\n        /* \"contracts/SingleSwap.sol\":2692:3074  ISwapRouter.ExactInputSingleParams({... */\n      0xffffffffffffffffffffffffffffffffffffffff\n      and\n      dup2\n      mstore\n      0x20\n      add\n        /* \"contracts/SingleSwap.sol\":2890:2905  block.timestamp */\n      timestamp\n        /* \"contracts/SingleSwap.sol\":2692:3074  ISwapRouter.ExactInputSingleParams({... */\n      dup2\n      mstore\n      0x20\n      add\n        /* \"contracts/SingleSwap.sol\":2933:2941  amountIn */\n      dup5\n        /* \"contracts/SingleSwap.sol\":2692:3074  ISwapRouter.ExactInputSingleParams({... */\n      dup2\n      mstore\n      0x20\n      add\n        /* \"contracts/SingleSwap.sol\":2977:2978  0 */\n      0x00\n        /* \"contracts/SingleSwap.sol\":2692:3074  ISwapRouter.ExactInputSingleParams({... */\n      dup2\n      mstore\n      0x20\n      add\n        /* \"contracts/SingleSwap.sol\":3015:3016  0 */\n      0x00\n        /* \"contracts/SingleSwap.sol\":2692:3074  ISwapRouter.ExactInputSingleParams({... */\n      0xffffffffffffffffffffffffffffffffffffffff\n      and\n      dup2\n      mstore\n      pop\n        /* \"contracts/SingleSwap.sol\":2629:3074  ISwapRouter.ExactInputSingleParams memory params =... */\n      swap1\n      pop\n        /* \"contracts/SingleSwap.sol\":3158:3168  swapRouter */\n      immutable(\"0xc5bf1d490d2f4e87cc1d5184cd59114bcef0e857ac09f6d840a1caed5b52d973\")\n        /* \"contracts/SingleSwap.sol\":3158:3185  swapRouter.exactInputSingle */\n      0xffffffffffffffffffffffffffffffffffffffff\n      and\n      0x414bf389\n        /* \"contracts/SingleSwap.sol\":3186:3192  params */\n      dup3\n        /* \"contracts/SingleSwap.sol\":3158:3193  swapRouter.exactInputSingle(params) */\n      mload(0x40)\n      dup3\n      0xffffffff\n      and\n      0xe0\n      shl\n      dup2\n      mstore\n      0x04\n      add\n      tag_58\n      swap2\n      swap1\n      tag_59\n      jump\t// in\n    tag_58:\n      0x20\n      mload(0x40)\n      dup1\n      dup4\n      sub\n      dup2\n      0x00\n      dup8\n      gas\n      call\n      iszero\n      dup1\n      iszero\n      tag_61\n      jumpi\n      returndatasize\n      0x00\n      dup1\n      returndatacopy\n      revert(0x00, returndatasize)\n    tag_61:\n      pop\n      pop\n      pop\n      pop\n      mload(0x40)\n      returndatasize\n      not(0x1f)\n      0x1f\n      dup3\n      add\n      and\n      dup3\n      add\n      dup1\n      0x40\n      mstore\n      pop\n      dup2\n      add\n      swap1\n      tag_62\n      swap2\n      swap1\n      tag_63\n      jump\t// in\n    tag_62:\n        /* \"contracts/SingleSwap.sol\":3146:3193  amountOut = swapRouter.exactInputSingle(params) */\n      swap2\n      pop\n        /* \"contracts/SingleSwap.sol\":2228:3200  {... */\n      pop\n        /* \"contracts/SingleSwap.sol\":2135:3200  function swapExactInputSingle(uint256 amountIn) external payable returns (uint256 amountOut) {... */\n      swap2\n      swap1\n      pop\n      jump\t// out\n        /* \"contracts/SingleSwap.sol\":1443:1516  address public constant WETH = 0xB4FBF271143F4FBf7B91A5ded31805e42b2208d6 */\n    tag_38:\n        /* \"contracts/SingleSwap.sol\":1474:1516  0xB4FBF271143F4FBf7B91A5ded31805e42b2208d6 */\n      0xb4fbf271143f4fbf7b91a5ded31805e42b2208d6\n        /* \"contracts/SingleSwap.sol\":1443:1516  address public constant WETH = 0xB4FBF271143F4FBf7B91A5ded31805e42b2208d6 */\n      dup2\n      jump\t// out\n        /* \"contracts/SingleSwap.sol\":1160:1257  ISwapRouter public immutable swapRouter = ISwapRouter(0xE592427A0AEce92De3Edee1F18E0157C05861564) */\n    tag_42:\n      immutable(\"0xc5bf1d490d2f4e87cc1d5184cd59114bcef0e857ac09f6d840a1caed5b52d973\")\n      dup2\n      jump\t// out\n        /* \"contracts/SingleSwap.sol\":3831:5249  function swapExactOutputSingle(uint256 amountOut, uint256 amountInMaximum) external returns (uint256 amountIn) {... */\n    tag_49:\n        /* \"contracts/SingleSwap.sol\":3924:3940  uint256 amountIn */\n      0x00\n        /* \"contracts/SingleSwap.sol\":4169:4178  linktoken */\n      dup1\n      0x00\n      swap1\n      sload\n      swap1\n      0x0100\n      exp\n      swap1\n      div\n      0xffffffffffffffffffffffffffffffffffffffff\n      and\n        /* \"contracts/SingleSwap.sol\":4169:4186  linktoken.approve */\n      0xffffffffffffffffffffffffffffffffffffffff\n      and\n      0x095ea7b3\n        /* \"contracts/SingleSwap.sol\":4195:4205  swapRouter */\n      immutable(\"0xc5bf1d490d2f4e87cc1d5184cd59114bcef0e857ac09f6d840a1caed5b52d973\")\n        /* \"contracts/SingleSwap.sol\":4208:4223  amountInMaximum */\n      dup5\n        /* \"contracts/SingleSwap.sol\":4169:4224  linktoken.approve(address(swapRouter), amountInMaximum) */\n      mload(0x40)\n      dup4\n      0xffffffff\n      and\n      0xe0\n      shl\n      dup2\n      mstore\n      0x04\n      add\n      tag_65\n      swap3\n      swap2\n      swap1\n      tag_53\n      jump\t// in\n    tag_65:\n      0x20\n      mload(0x40)\n      dup1\n      dup4\n      sub\n      dup2\n      0x00\n      dup8\n      gas\n      call\n      iszero\n      dup1\n      iszero\n      tag_67\n      jumpi\n      returndatasize\n      0x00\n      dup1\n      returndatacopy\n      revert(0x00, returndatasize)\n    tag_67:\n      pop\n      pop\n      pop\n      pop\n      mload(0x40)\n      returndatasize\n      not(0x1f)\n      0x1f\n      dup3\n      add\n      and\n      dup3\n      add\n      dup1\n      0x40\n      mstore\n      pop\n      dup2\n      add\n      swap1\n      tag_68\n      swap2\n      swap1\n      tag_57\n      jump\t// in\n    tag_68:\n      pop\n        /* \"contracts/SingleSwap.sol\":4235:4284  ISwapRouter.ExactOutputSingleParams memory params */\n      0x00\n        /* \"contracts/SingleSwap.sol\":4299:4654  ISwapRouter.ExactOutputSingleParams({... */\n      mload(0x40)\n      dup1\n      0x0100\n      add\n      0x40\n      mstore\n      dup1\n        /* \"contracts/SingleSwap.sol\":1395:1437  0x326C977E6efc84E512bB9C30f76E30c160eD06FB */\n      0x326c977e6efc84e512bb9c30f76e30c160ed06fb\n        /* \"contracts/SingleSwap.sol\":4299:4654  ISwapRouter.ExactOutputSingleParams({... */\n      0xffffffffffffffffffffffffffffffffffffffff\n      and\n      dup2\n      mstore\n      0x20\n      add\n        /* \"contracts/SingleSwap.sol\":1474:1516  0xB4FBF271143F4FBf7B91A5ded31805e42b2208d6 */\n      0xb4fbf271143f4fbf7b91a5ded31805e42b2208d6\n        /* \"contracts/SingleSwap.sol\":4299:4654  ISwapRouter.ExactOutputSingleParams({... */\n      0xffffffffffffffffffffffffffffffffffffffff\n      and\n      dup2\n      mstore\n      0x20\n      add\n        /* \"contracts/SingleSwap.sol\":1660:1664  3000 */\n      0x0bb8\n        /* \"contracts/SingleSwap.sol\":4299:4654  ISwapRouter.ExactOutputSingleParams({... */\n      0xffffff\n      and\n      dup2\n      mstore\n      0x20\n      add\n        /* \"contracts/SingleSwap.sol\":4465:4469  this */\n      address\n        /* \"contracts/SingleSwap.sol\":4299:4654  ISwapRouter.ExactOutputSingleParams({... */\n      0xffffffffffffffffffffffffffffffffffffffff\n      and\n      dup2\n      mstore\n      0x20\n      add\n        /* \"contracts/SingleSwap.sol\":4498:4513  block.timestamp */\n      timestamp\n        /* \"contracts/SingleSwap.sol\":4299:4654  ISwapRouter.ExactOutputSingleParams({... */\n      dup2\n      mstore\n      0x20\n      add\n        /* \"contracts/SingleSwap.sol\":4542:4551  amountOut */\n      dup6\n        /* \"contracts/SingleSwap.sol\":4299:4654  ISwapRouter.ExactOutputSingleParams({... */\n      dup2\n      mstore\n      0x20\n      add\n        /* \"contracts/SingleSwap.sol\":4586:4601  amountInMaximum */\n      dup5\n        /* \"contracts/SingleSwap.sol\":4299:4654  ISwapRouter.ExactOutputSingleParams({... */\n      dup2\n      mstore\n      0x20\n      add\n        /* \"contracts/SingleSwap.sol\":4638:4639  0 */\n      0x00\n        /* \"contracts/SingleSwap.sol\":4299:4654  ISwapRouter.ExactOutputSingleParams({... */\n      0xffffffffffffffffffffffffffffffffffffffff\n      and\n      dup2\n      mstore\n      pop\n        /* \"contracts/SingleSwap.sol\":4235:4654  ISwapRouter.ExactOutputSingleParams memory params =... */\n      swap1\n      pop\n        /* \"contracts/SingleSwap.sol\":4778:4788  swapRouter */\n      immutable(\"0xc5bf1d490d2f4e87cc1d5184cd59114bcef0e857ac09f6d840a1caed5b52d973\")\n        /* \"contracts/SingleSwap.sol\":4778:4806  swapRouter.exactOutputSingle */\n      0xffffffffffffffffffffffffffffffffffffffff\n      and\n      0xdb3e2198\n        /* \"contracts/SingleSwap.sol\":4807:4813  params */\n      dup3\n        /* \"contracts/SingleSwap.sol\":4778:4814  swapRouter.exactOutputSingle(params) */\n      mload(0x40)\n      dup3\n      0xffffffff\n      and\n      0xe0\n      shl\n      dup2\n      mstore\n      0x04\n      add\n      tag_69\n      swap2\n      swap1\n      tag_70\n      jump\t// in\n    tag_69:\n      0x20\n      mload(0x40)\n      dup1\n      dup4\n      sub\n      dup2\n      0x00\n      dup8\n      gas\n      call\n      iszero\n      dup1\n      iszero\n      tag_72\n      jumpi\n      returndatasize\n      0x00\n      dup1\n      returndatacopy\n      revert(0x00, returndatasize)\n    tag_72:\n      pop\n      pop\n      pop\n      pop\n      mload(0x40)\n      returndatasize\n      not(0x1f)\n      0x1f\n      dup3\n      add\n      and\n      dup3\n      add\n      dup1\n      0x40\n      mstore\n      pop\n      dup2\n      add\n      swap1\n      tag_73\n      swap2\n      swap1\n      tag_63\n      jump\t// in\n    tag_73:\n        /* \"contracts/SingleSwap.sol\":4767:4814  amountIn = swapRouter.exactOutputSingle(params) */\n      swap2\n      pop\n        /* \"contracts/SingleSwap.sol\":5085:5100  amountInMaximum */\n      dup3\n        /* \"contracts/SingleSwap.sol\":5074:5082  amountIn */\n      dup3\n        /* \"contracts/SingleSwap.sol\":5074:5100  amountIn < amountInMaximum */\n      lt\n        /* \"contracts/SingleSwap.sol\":5070:5243  if (amountIn < amountInMaximum) {... */\n      iszero\n      tag_74\n      jumpi\n        /* \"contracts/SingleSwap.sol\":5116:5125  linktoken */\n      0x00\n      dup1\n      sload\n      swap1\n      0x0100\n      exp\n      swap1\n      div\n      0xffffffffffffffffffffffffffffffffffffffff\n      and\n        /* \"contracts/SingleSwap.sol\":5116:5133  linktoken.approve */\n      0xffffffffffffffffffffffffffffffffffffffff\n      and\n      0x095ea7b3\n        /* \"contracts/SingleSwap.sol\":5142:5152  swapRouter */\n      immutable(\"0xc5bf1d490d2f4e87cc1d5184cd59114bcef0e857ac09f6d840a1caed5b52d973\")\n        /* \"contracts/SingleSwap.sol\":5155:5156  0 */\n      0x00\n        /* \"contracts/SingleSwap.sol\":5116:5157  linktoken.approve(address(swapRouter), 0) */\n      mload(0x40)\n      dup4\n      0xffffffff\n      and\n      0xe0\n      shl\n      dup2\n      mstore\n      0x04\n      add\n      tag_75\n      swap3\n      swap2\n      swap1\n      tag_76\n      jump\t// in\n    tag_75:\n      0x20\n      mload(0x40)\n      dup1\n      dup4\n      sub\n      dup2\n      0x00\n      dup8\n      gas\n      call\n      iszero\n      dup1\n      iszero\n      tag_78\n      jumpi\n      returndatasize\n      0x00\n      dup1\n      returndatacopy\n      revert(0x00, returndatasize)\n    tag_78:\n      pop\n      pop\n      pop\n      pop\n      mload(0x40)\n      returndatasize\n      not(0x1f)\n      0x1f\n      dup3\n      add\n      and\n      dup3\n      add\n      dup1\n      0x40\n      mstore\n      pop\n      dup2\n      add\n      swap1\n      tag_79\n      swap2\n      swap1\n      tag_57\n      jump\t// in\n    tag_79:\n      pop\n        /* \"contracts/SingleSwap.sol\":5171:5180  linktoken */\n      0x00\n      dup1\n      sload\n      swap1\n      0x0100\n      exp\n      swap1\n      div\n      0xffffffffffffffffffffffffffffffffffffffff\n      and\n        /* \"contracts/SingleSwap.sol\":5171:5189  linktoken.transfer */\n      0xffffffffffffffffffffffffffffffffffffffff\n      and\n      0xa9059cbb\n        /* \"contracts/SingleSwap.sol\":5198:5202  this */\n      address\n        /* \"contracts/SingleSwap.sol\":5223:5231  amountIn */\n      dup5\n        /* \"contracts/SingleSwap.sol\":5205:5220  amountInMaximum */\n      dup7\n        /* \"contracts/SingleSwap.sol\":5205:5231  amountInMaximum - amountIn */\n      tag_80\n      swap2\n      swap1\n      tag_81\n      jump\t// in\n    tag_80:\n        /* \"contracts/SingleSwap.sol\":5171:5232  linktoken.transfer(address(this), amountInMaximum - amountIn) */\n      mload(0x40)\n      dup4\n      0xffffffff\n      and\n      0xe0\n      shl\n      dup2\n      mstore\n      0x04\n      add\n      tag_82\n      swap3\n      swap2\n      swap1\n      tag_53\n      jump\t// in\n    tag_82:\n      0x20\n      mload(0x40)\n      dup1\n      dup4\n      sub\n      dup2\n      0x00\n      dup8\n      gas\n      call\n      iszero\n      dup1\n      iszero\n      tag_84\n      jumpi\n      returndatasize\n      0x00\n      dup1\n      returndatacopy\n      revert(0x00, returndatasize)\n    tag_84:\n      pop\n      pop\n      pop\n      pop\n      mload(0x40)\n      returndatasize\n      not(0x1f)\n      0x1f\n      dup3\n      add\n      and\n      dup3\n      add\n      dup1\n      0x40\n      mstore\n      pop\n      dup2\n      add\n      swap1\n      tag_85\n      swap2\n      swap1\n      tag_57\n      jump\t// in\n    tag_85:\n      pop\n        /* \"contracts/SingleSwap.sol\":5070:5243  if (amountIn < amountInMaximum) {... */\n    tag_74:\n        /* \"contracts/SingleSwap.sol\":3942:5249  {... */\n      pop\n        /* \"contracts/SingleSwap.sol\":3831:5249  function swapExactOutputSingle(uint256 amountOut, uint256 amountInMaximum) external returns (uint256 amountIn) {... */\n      swap3\n      swap2\n      pop\n      pop\n      jump\t// out\n        /* \"#utility.yul\":7:98   */\n    tag_86:\n        /* \"#utility.yul\":43:50   */\n      0x00\n        /* \"#utility.yul\":83:91   */\n      0xffffff\n        /* \"#utility.yul\":76:81   */\n      dup3\n        /* \"#utility.yul\":72:92   */\n      and\n        /* \"#utility.yul\":61:92   */\n      swap1\n      pop\n        /* \"#utility.yul\":7:98   */\n      swap2\n      swap1\n      pop\n      jump\t// out\n        /* \"#utility.yul\":104:219   */\n    tag_87:\n        /* \"#utility.yul\":189:212   */\n      tag_122\n        /* \"#utility.yul\":206:211   */\n      dup2\n        /* \"#utility.yul\":189:212   */\n      tag_86\n      jump\t// in\n    tag_122:\n        /* \"#utility.yul\":184:187   */\n      dup3\n        /* \"#utility.yul\":177:213   */\n      mstore\n        /* \"#utility.yul\":104:219   */\n      pop\n      pop\n      jump\t// out\n        /* \"#utility.yul\":225:443   */\n    tag_15:\n        /* \"#utility.yul\":316:320   */\n      0x00\n        /* \"#utility.yul\":354:356   */\n      0x20\n        /* \"#utility.yul\":343:352   */\n      dup3\n        /* \"#utility.yul\":339:357   */\n      add\n        /* \"#utility.yul\":331:357   */\n      swap1\n      pop\n        /* \"#utility.yul\":367:436   */\n      tag_124\n        /* \"#utility.yul\":433:434   */\n      0x00\n        /* \"#utility.yul\":422:431   */\n      dup4\n        /* \"#utility.yul\":418:435   */\n      add\n        /* \"#utility.yul\":409:415   */\n      dup5\n        /* \"#utility.yul\":367:436   */\n      tag_87\n      jump\t// in\n    tag_124:\n        /* \"#utility.yul\":225:443   */\n      swap3\n      swap2\n      pop\n      pop\n      jump\t// out\n        /* \"#utility.yul\":449:575   */\n    tag_88:\n        /* \"#utility.yul\":486:493   */\n      0x00\n        /* \"#utility.yul\":526:568   */\n      0xffffffffffffffffffffffffffffffffffffffff\n        /* \"#utility.yul\":519:524   */\n      dup3\n        /* \"#utility.yul\":515:569   */\n      and\n        /* \"#utility.yul\":504:569   */\n      swap1\n      pop\n        /* \"#utility.yul\":449:575   */\n      swap2\n      swap1\n      pop\n      jump\t// out\n        /* \"#utility.yul\":581:677   */\n    tag_89:\n        /* \"#utility.yul\":618:625   */\n      0x00\n        /* \"#utility.yul\":647:671   */\n      tag_127\n        /* \"#utility.yul\":665:670   */\n      dup3\n        /* \"#utility.yul\":647:671   */\n      tag_88\n      jump\t// in\n    tag_127:\n        /* \"#utility.yul\":636:671   */\n      swap1\n      pop\n        /* \"#utility.yul\":581:677   */\n      swap2\n      swap1\n      pop\n      jump\t// out\n        /* \"#utility.yul\":683:801   */\n    tag_90:\n        /* \"#utility.yul\":770:794   */\n      tag_129\n        /* \"#utility.yul\":788:793   */\n      dup2\n        /* \"#utility.yul\":770:794   */\n      tag_89\n      jump\t// in\n    tag_129:\n        /* \"#utility.yul\":765:768   */\n      dup3\n        /* \"#utility.yul\":758:795   */\n      mstore\n        /* \"#utility.yul\":683:801   */\n      pop\n      pop\n      jump\t// out\n        /* \"#utility.yul\":807:1029   */\n    tag_20:\n        /* \"#utility.yul\":900:904   */\n      0x00\n        /* \"#utility.yul\":938:940   */\n      0x20\n        /* \"#utility.yul\":927:936   */\n      dup3\n        /* \"#utility.yul\":923:941   */\n      add\n        /* \"#utility.yul\":915:941   */\n      swap1\n      pop\n        /* \"#utility.yul\":951:1022   */\n      tag_131\n        /* \"#utility.yul\":1019:1020   */\n      0x00\n        /* \"#utility.yul\":1008:1017   */\n      dup4\n        /* \"#utility.yul\":1004:1021   */\n      add\n        /* \"#utility.yul\":995:1001   */\n      dup5\n        /* \"#utility.yul\":951:1022   */\n      tag_90\n      jump\t// in\n    tag_131:\n        /* \"#utility.yul\":807:1029   */\n      swap3\n      swap2\n      pop\n      pop\n      jump\t// out\n        /* \"#utility.yul\":1035:1095   */\n    tag_91:\n        /* \"#utility.yul\":1063:1066   */\n      0x00\n        /* \"#utility.yul\":1084:1089   */\n      dup2\n        /* \"#utility.yul\":1077:1089   */\n      swap1\n      pop\n        /* \"#utility.yul\":1035:1095   */\n      swap2\n      swap1\n      pop\n      jump\t// out\n        /* \"#utility.yul\":1101:1243   */\n    tag_92:\n        /* \"#utility.yul\":1151:1160   */\n      0x00\n        /* \"#utility.yul\":1184:1237   */\n      tag_134\n        /* \"#utility.yul\":1202:1236   */\n      tag_135\n        /* \"#utility.yul\":1211:1235   */\n      tag_136\n        /* \"#utility.yul\":1229:1234   */\n      dup5\n        /* \"#utility.yul\":1211:1235   */\n      tag_88\n      jump\t// in\n    tag_136:\n        /* \"#utility.yul\":1202:1236   */\n      tag_91\n      jump\t// in\n    tag_135:\n        /* \"#utility.yul\":1184:1237   */\n      tag_88\n      jump\t// in\n    tag_134:\n        /* \"#utility.yul\":1171:1237   */\n      swap1\n      pop\n        /* \"#utility.yul\":1101:1243   */\n      swap2\n      swap1\n      pop\n      jump\t// out\n        /* \"#utility.yul\":1249:1375   */\n    tag_93:\n        /* \"#utility.yul\":1299:1308   */\n      0x00\n        /* \"#utility.yul\":1332:1369   */\n      tag_138\n        /* \"#utility.yul\":1363:1368   */\n      dup3\n        /* \"#utility.yul\":1332:1369   */\n      tag_92\n      jump\t// in\n    tag_138:\n        /* \"#utility.yul\":1319:1369   */\n      swap1\n      pop\n        /* \"#utility.yul\":1249:1375   */\n      swap2\n      swap1\n      pop\n      jump\t// out\n        /* \"#utility.yul\":1381:1521   */\n    tag_94:\n        /* \"#utility.yul\":1445:1454   */\n      0x00\n        /* \"#utility.yul\":1478:1515   */\n      tag_140\n        /* \"#utility.yul\":1509:1514   */\n      dup3\n        /* \"#utility.yul\":1478:1515   */\n      tag_93\n      jump\t// in\n    tag_140:\n        /* \"#utility.yul\":1465:1515   */\n      swap1\n      pop\n        /* \"#utility.yul\":1381:1521   */\n      swap2\n      swap1\n      pop\n      jump\t// out\n        /* \"#utility.yul\":1527:1686   */\n    tag_95:\n        /* \"#utility.yul\":1628:1679   */\n      tag_142\n        /* \"#utility.yul\":1673:1678   */\n      dup2\n        /* \"#utility.yul\":1628:1679   */\n      tag_94\n      jump\t// in\n    tag_142:\n        /* \"#utility.yul\":1623:1626   */\n      dup3\n        /* \"#utility.yul\":1616:1680   */\n      mstore\n        /* \"#utility.yul\":1527:1686   */\n      pop\n      pop\n      jump\t// out\n        /* \"#utility.yul\":1692:1942   */\n    tag_25:\n        /* \"#utility.yul\":1799:1803   */\n      0x00\n        /* \"#utility.yul\":1837:1839   */\n      0x20\n        /* \"#utility.yul\":1826:1835   */\n      dup3\n        /* \"#utility.yul\":1822:1840   */\n      add\n        /* \"#utility.yul\":1814:1840   */\n      swap1\n      pop\n        /* \"#utility.yul\":1850:1935   */\n      tag_144\n        /* \"#utility.yul\":1932:1933   */\n      0x00\n        /* \"#utility.yul\":1921:1930   */\n      dup4\n        /* \"#utility.yul\":1917:1934   */\n      add\n        /* \"#utility.yul\":1908:1914   */\n      dup5\n        /* \"#utility.yul\":1850:1935   */\n      tag_95\n      jump\t// in\n    tag_144:\n        /* \"#utility.yul\":1692:1942   */\n      swap3\n      swap2\n      pop\n      pop\n      jump\t// out\n        /* \"#utility.yul\":2029:2146   */\n    tag_97:\n        /* \"#utility.yul\":2138:2139   */\n      0x00\n        /* \"#utility.yul\":2135:2136   */\n      dup1\n        /* \"#utility.yul\":2128:2140   */\n      revert\n        /* \"#utility.yul\":2275:2352   */\n    tag_99:\n        /* \"#utility.yul\":2312:2319   */\n      0x00\n        /* \"#utility.yul\":2341:2346   */\n      dup2\n        /* \"#utility.yul\":2330:2346   */\n      swap1\n      pop\n        /* \"#utility.yul\":2275:2352   */\n      swap2\n      swap1\n      pop\n      jump\t// out\n        /* \"#utility.yul\":2358:2480   */\n    tag_100:\n        /* \"#utility.yul\":2431:2455   */\n      tag_150\n        /* \"#utility.yul\":2449:2454   */\n      dup2\n        /* \"#utility.yul\":2431:2455   */\n      tag_99\n      jump\t// in\n    tag_150:\n        /* \"#utility.yul\":2424:2429   */\n      dup2\n        /* \"#utility.yul\":2421:2456   */\n      eq\n        /* \"#utility.yul\":2411:2474   */\n      tag_151\n      jumpi\n        /* \"#utility.yul\":2470:2471   */\n      0x00\n        /* \"#utility.yul\":2467:2468   */\n      dup1\n        /* \"#utility.yul\":2460:2472   */\n      revert\n        /* \"#utility.yul\":2411:2474   */\n    tag_151:\n        /* \"#utility.yul\":2358:2480   */\n      pop\n      jump\t// out\n        /* \"#utility.yul\":2486:2625   */\n    tag_101:\n        /* \"#utility.yul\":2532:2537   */\n      0x00\n        /* \"#utility.yul\":2570:2576   */\n      dup2\n        /* \"#utility.yul\":2557:2577   */\n      calldataload\n        /* \"#utility.yul\":2548:2577   */\n      swap1\n      pop\n        /* \"#utility.yul\":2586:2619   */\n      tag_153\n        /* \"#utility.yul\":2613:2618   */\n      dup2\n        /* \"#utility.yul\":2586:2619   */\n      tag_100\n      jump\t// in\n    tag_153:\n        /* \"#utility.yul\":2486:2625   */\n      swap3\n      swap2\n      pop\n      pop\n      jump\t// out\n        /* \"#utility.yul\":2631:2960   */\n    tag_32:\n        /* \"#utility.yul\":2690:2696   */\n      0x00\n        /* \"#utility.yul\":2739:2741   */\n      0x20\n        /* \"#utility.yul\":2727:2736   */\n      dup3\n        /* \"#utility.yul\":2718:2725   */\n      dup5\n        /* \"#utility.yul\":2714:2737   */\n      sub\n        /* \"#utility.yul\":2710:2742   */\n      slt\n        /* \"#utility.yul\":2707:2826   */\n      iszero\n      tag_155\n      jumpi\n        /* \"#utility.yul\":2745:2824   */\n      tag_156\n      tag_97\n      jump\t// in\n    tag_156:\n        /* \"#utility.yul\":2707:2826   */\n    tag_155:\n        /* \"#utility.yul\":2865:2866   */\n      0x00\n        /* \"#utility.yul\":2890:2943   */\n      tag_157\n        /* \"#utility.yul\":2935:2942   */\n      dup5\n        /* \"#utility.yul\":2926:2932   */\n      dup3\n        /* \"#utility.yul\":2915:2924   */\n      dup6\n        /* \"#utility.yul\":2911:2933   */\n      add\n        /* \"#utility.yul\":2890:2943   */\n      tag_101\n      jump\t// in\n    tag_157:\n        /* \"#utility.yul\":2880:2943   */\n      swap2\n      pop\n        /* \"#utility.yul\":2836:2953   */\n      pop\n        /* \"#utility.yul\":2631:2960   */\n      swap3\n      swap2\n      pop\n      pop\n      jump\t// out\n        /* \"#utility.yul\":2966:3084   */\n    tag_102:\n        /* \"#utility.yul\":3053:3077   */\n      tag_159\n        /* \"#utility.yul\":3071:3076   */\n      dup2\n        /* \"#utility.yul\":3053:3077   */\n      tag_99\n      jump\t// in\n    tag_159:\n        /* \"#utility.yul\":3048:3051   */\n      dup3\n        /* \"#utility.yul\":3041:3078   */\n      mstore\n        /* \"#utility.yul\":2966:3084   */\n      pop\n      pop\n      jump\t// out\n        /* \"#utility.yul\":3090:3312   */\n    tag_35:\n        /* \"#utility.yul\":3183:3187   */\n      0x00\n        /* \"#utility.yul\":3221:3223   */\n      0x20\n        /* \"#utility.yul\":3210:3219   */\n      dup3\n        /* \"#utility.yul\":3206:3224   */\n      add\n        /* \"#utility.yul\":3198:3224   */\n      swap1\n      pop\n        /* \"#utility.yul\":3234:3305   */\n      tag_161\n        /* \"#utility.yul\":3302:3303   */\n      0x00\n        /* \"#utility.yul\":3291:3300   */\n      dup4\n        /* \"#utility.yul\":3287:3304   */\n      add\n        /* \"#utility.yul\":3278:3284   */\n      dup5\n        /* \"#utility.yul\":3234:3305   */\n      tag_102\n      jump\t// in\n    tag_161:\n        /* \"#utility.yul\":3090:3312   */\n      swap3\n      swap2\n      pop\n      pop\n      jump\t// out\n        /* \"#utility.yul\":3318:3463   */\n    tag_103:\n        /* \"#utility.yul\":3387:3396   */\n      0x00\n        /* \"#utility.yul\":3420:3457   */\n      tag_163\n        /* \"#utility.yul\":3451:3456   */\n      dup3\n        /* \"#utility.yul\":3420:3457   */\n      tag_93\n      jump\t// in\n    tag_163:\n        /* \"#utility.yul\":3407:3457   */\n      swap1\n      pop\n        /* \"#utility.yul\":3318:3463   */\n      swap2\n      swap1\n      pop\n      jump\t// out\n        /* \"#utility.yul\":3469:3638   */\n    tag_104:\n        /* \"#utility.yul\":3575:3631   */\n      tag_165\n        /* \"#utility.yul\":3625:3630   */\n      dup2\n        /* \"#utility.yul\":3575:3631   */\n      tag_103\n      jump\t// in\n    tag_165:\n        /* \"#utility.yul\":3570:3573   */\n      dup3\n        /* \"#utility.yul\":3563:3632   */\n      mstore\n        /* \"#utility.yul\":3469:3638   */\n      pop\n      pop\n      jump\t// out\n        /* \"#utility.yul\":3644:3904   */\n    tag_44:\n        /* \"#utility.yul\":3756:3760   */\n      0x00\n        /* \"#utility.yul\":3794:3796   */\n      0x20\n        /* \"#utility.yul\":3783:3792   */\n      dup3\n        /* \"#utility.yul\":3779:3797   */\n      add\n        /* \"#utility.yul\":3771:3797   */\n      swap1\n      pop\n        /* \"#utility.yul\":3807:3897   */\n      tag_167\n        /* \"#utility.yul\":3894:3895   */\n      0x00\n        /* \"#utility.yul\":3883:3892   */\n      dup4\n        /* \"#utility.yul\":3879:3896   */\n      add\n        /* \"#utility.yul\":3870:3876   */\n      dup5\n        /* \"#utility.yul\":3807:3897   */\n      tag_104\n      jump\t// in\n    tag_167:\n        /* \"#utility.yul\":3644:3904   */\n      swap3\n      swap2\n      pop\n      pop\n      jump\t// out\n        /* \"#utility.yul\":3910:4384   */\n    tag_48:\n        /* \"#utility.yul\":3978:3984   */\n      0x00\n        /* \"#utility.yul\":3986:3992   */\n      dup1\n        /* \"#utility.yul\":4035:4037   */\n      0x40\n        /* \"#utility.yul\":4023:4032   */\n      dup4\n        /* \"#utility.yul\":4014:4021   */\n      dup6\n        /* \"#utility.yul\":4010:4033   */\n      sub\n        /* \"#utility.yul\":4006:4038   */\n      slt\n        /* \"#utility.yul\":4003:4122   */\n      iszero\n      tag_169\n      jumpi\n        /* \"#utility.yul\":4041:4120   */\n      tag_170\n      tag_97\n      jump\t// in\n    tag_170:\n        /* \"#utility.yul\":4003:4122   */\n    tag_169:\n        /* \"#utility.yul\":4161:4162   */\n      0x00\n        /* \"#utility.yul\":4186:4239   */\n      tag_171\n        /* \"#utility.yul\":4231:4238   */\n      dup6\n        /* \"#utility.yul\":4222:4228   */\n      dup3\n        /* \"#utility.yul\":4211:4220   */\n      dup7\n        /* \"#utility.yul\":4207:4229   */\n      add\n        /* \"#utility.yul\":4186:4239   */\n      tag_101\n      jump\t// in\n    tag_171:\n        /* \"#utility.yul\":4176:4239   */\n      swap3\n      pop\n        /* \"#utility.yul\":4132:4249   */\n      pop\n        /* \"#utility.yul\":4288:4290   */\n      0x20\n        /* \"#utility.yul\":4314:4367   */\n      tag_172\n        /* \"#utility.yul\":4359:4366   */\n      dup6\n        /* \"#utility.yul\":4350:4356   */\n      dup3\n        /* \"#utility.yul\":4339:4348   */\n      dup7\n        /* \"#utility.yul\":4335:4357   */\n      add\n        /* \"#utility.yul\":4314:4367   */\n      tag_101\n      jump\t// in\n    tag_172:\n        /* \"#utility.yul\":4304:4367   */\n      swap2\n      pop\n        /* \"#utility.yul\":4259:4377   */\n      pop\n        /* \"#utility.yul\":3910:4384   */\n      swap3\n      pop\n      swap3\n      swap1\n      pop\n      jump\t// out\n        /* \"#utility.yul\":4390:4722   */\n    tag_53:\n        /* \"#utility.yul\":4511:4515   */\n      0x00\n        /* \"#utility.yul\":4549:4551   */\n      0x40\n        /* \"#utility.yul\":4538:4547   */\n      dup3\n        /* \"#utility.yul\":4534:4552   */\n      add\n        /* \"#utility.yul\":4526:4552   */\n      swap1\n      pop\n        /* \"#utility.yul\":4562:4633   */\n      tag_174\n        /* \"#utility.yul\":4630:4631   */\n      0x00\n        /* \"#utility.yul\":4619:4628   */\n      dup4\n        /* \"#utility.yul\":4615:4632   */\n      add\n        /* \"#utility.yul\":4606:4612   */\n      dup6\n        /* \"#utility.yul\":4562:4633   */\n      tag_90\n      jump\t// in\n    tag_174:\n        /* \"#utility.yul\":4643:4715   */\n      tag_175\n        /* \"#utility.yul\":4711:4713   */\n      0x20\n        /* \"#utility.yul\":4700:4709   */\n      dup4\n        /* \"#utility.yul\":4696:4714   */\n      add\n        /* \"#utility.yul\":4687:4693   */\n      dup5\n        /* \"#utility.yul\":4643:4715   */\n      tag_102\n      jump\t// in\n    tag_175:\n        /* \"#utility.yul\":4390:4722   */\n      swap4\n      swap3\n      pop\n      pop\n      pop\n      jump\t// out\n        /* \"#utility.yul\":4728:4818   */\n    tag_105:\n        /* \"#utility.yul\":4762:4769   */\n      0x00\n        /* \"#utility.yul\":4805:4810   */\n      dup2\n        /* \"#utility.yul\":4798:4811   */\n      iszero\n        /* \"#utility.yul\":4791:4812   */\n      iszero\n        /* \"#utility.yul\":4780:4812   */\n      swap1\n      pop\n        /* \"#utility.yul\":4728:4818   */\n      swap2\n      swap1\n      pop\n      jump\t// out\n        /* \"#utility.yul\":4824:4940   */\n    tag_106:\n        /* \"#utility.yul\":4894:4915   */\n      tag_178\n        /* \"#utility.yul\":4909:4914   */\n      dup2\n        /* \"#utility.yul\":4894:4915   */\n      tag_105\n      jump\t// in\n    tag_178:\n        /* \"#utility.yul\":4887:4892   */\n      dup2\n        /* \"#utility.yul\":4884:4916   */\n      eq\n        /* \"#utility.yul\":4874:4934   */\n      tag_179\n      jumpi\n        /* \"#utility.yul\":4930:4931   */\n      0x00\n        /* \"#utility.yul\":4927:4928   */\n      dup1\n        /* \"#utility.yul\":4920:4932   */\n      revert\n        /* \"#utility.yul\":4874:4934   */\n    tag_179:\n        /* \"#utility.yul\":4824:4940   */\n      pop\n      jump\t// out\n        /* \"#utility.yul\":4946:5083   */\n    tag_107:\n        /* \"#utility.yul\":5000:5005   */\n      0x00\n        /* \"#utility.yul\":5031:5037   */\n      dup2\n        /* \"#utility.yul\":5025:5038   */\n      mload\n        /* \"#utility.yul\":5016:5038   */\n      swap1\n      pop\n        /* \"#utility.yul\":5047:5077   */\n      tag_181\n        /* \"#utility.yul\":5071:5076   */\n      dup2\n        /* \"#utility.yul\":5047:5077   */\n      tag_106\n      jump\t// in\n    tag_181:\n        /* \"#utility.yul\":4946:5083   */\n      swap3\n      swap2\n      pop\n      pop\n      jump\t// out\n        /* \"#utility.yul\":5089:5434   */\n    tag_57:\n        /* \"#utility.yul\":5156:5162   */\n      0x00\n        /* \"#utility.yul\":5205:5207   */\n      0x20\n        /* \"#utility.yul\":5193:5202   */\n      dup3\n        /* \"#utility.yul\":5184:5191   */\n      dup5\n        /* \"#utility.yul\":5180:5203   */\n      sub\n        /* \"#utility.yul\":5176:5208   */\n      slt\n        /* \"#utility.yul\":5173:5292   */\n      iszero\n      tag_183\n      jumpi\n        /* \"#utility.yul\":5211:5290   */\n      tag_184\n      tag_97\n      jump\t// in\n    tag_184:\n        /* \"#utility.yul\":5173:5292   */\n    tag_183:\n        /* \"#utility.yul\":5331:5332   */\n      0x00\n        /* \"#utility.yul\":5356:5417   */\n      tag_185\n        /* \"#utility.yul\":5409:5416   */\n      dup5\n        /* \"#utility.yul\":5400:5406   */\n      dup3\n        /* \"#utility.yul\":5389:5398   */\n      dup6\n        /* \"#utility.yul\":5385:5407   */\n      add\n        /* \"#utility.yul\":5356:5417   */\n      tag_107\n      jump\t// in\n    tag_185:\n        /* \"#utility.yul\":5346:5417   */\n      swap2\n      pop\n        /* \"#utility.yul\":5302:5427   */\n      pop\n        /* \"#utility.yul\":5089:5434   */\n      swap3\n      swap2\n      pop\n      pop\n      jump\t// out\n        /* \"#utility.yul\":5440:5548   */\n    tag_108:\n        /* \"#utility.yul\":5517:5541   */\n      tag_187\n        /* \"#utility.yul\":5535:5540   */\n      dup2\n        /* \"#utility.yul\":5517:5541   */\n      tag_89\n      jump\t// in\n    tag_187:\n        /* \"#utility.yul\":5512:5515   */\n      dup3\n        /* \"#utility.yul\":5505:5542   */\n      mstore\n        /* \"#utility.yul\":5440:5548   */\n      pop\n      pop\n      jump\t// out\n        /* \"#utility.yul\":5554:5659   */\n    tag_109:\n        /* \"#utility.yul\":5629:5652   */\n      tag_189\n        /* \"#utility.yul\":5646:5651   */\n      dup2\n        /* \"#utility.yul\":5629:5652   */\n      tag_86\n      jump\t// in\n    tag_189:\n        /* \"#utility.yul\":5624:5627   */\n      dup3\n        /* \"#utility.yul\":5617:5653   */\n      mstore\n        /* \"#utility.yul\":5554:5659   */\n      pop\n      pop\n      jump\t// out\n        /* \"#utility.yul\":5665:5773   */\n    tag_110:\n        /* \"#utility.yul\":5742:5766   */\n      tag_191\n        /* \"#utility.yul\":5760:5765   */\n      dup2\n        /* \"#utility.yul\":5742:5766   */\n      tag_99\n      jump\t// in\n    tag_191:\n        /* \"#utility.yul\":5737:5740   */\n      dup3\n        /* \"#utility.yul\":5730:5767   */\n      mstore\n        /* \"#utility.yul\":5665:5773   */\n      pop\n      pop\n      jump\t// out\n        /* \"#utility.yul\":5779:5887   */\n    tag_111:\n        /* \"#utility.yul\":5856:5880   */\n      tag_193\n        /* \"#utility.yul\":5874:5879   */\n      dup2\n        /* \"#utility.yul\":5856:5880   */\n      tag_88\n      jump\t// in\n    tag_193:\n        /* \"#utility.yul\":5851:5854   */\n      dup3\n        /* \"#utility.yul\":5844:5881   */\n      mstore\n        /* \"#utility.yul\":5779:5887   */\n      pop\n      pop\n      jump\t// out\n        /* \"#utility.yul\":5987:7608   */\n    tag_112:\n        /* \"#utility.yul\":6160:6166   */\n      0x0100\n        /* \"#utility.yul\":6155:6158   */\n      dup3\n        /* \"#utility.yul\":6151:6167   */\n      add\n        /* \"#utility.yul\":6252:6256   */\n      0x00\n        /* \"#utility.yul\":6245:6250   */\n      dup3\n        /* \"#utility.yul\":6241:6257   */\n      add\n        /* \"#utility.yul\":6235:6258   */\n      mload\n        /* \"#utility.yul\":6271:6334   */\n      tag_195\n        /* \"#utility.yul\":6328:6332   */\n      0x00\n        /* \"#utility.yul\":6323:6326   */\n      dup6\n        /* \"#utility.yul\":6319:6333   */\n      add\n        /* \"#utility.yul\":6305:6317   */\n      dup3\n        /* \"#utility.yul\":6271:6334   */\n      tag_108\n      jump\t// in\n    tag_195:\n        /* \"#utility.yul\":6177:6344   */\n      pop\n        /* \"#utility.yul\":6430:6434   */\n      0x20\n        /* \"#utility.yul\":6423:6428   */\n      dup3\n        /* \"#utility.yul\":6419:6435   */\n      add\n        /* \"#utility.yul\":6413:6436   */\n      mload\n        /* \"#utility.yul\":6449:6512   */\n      tag_196\n        /* \"#utility.yul\":6506:6510   */\n      0x20\n        /* \"#utility.yul\":6501:6504   */\n      dup6\n        /* \"#utility.yul\":6497:6511   */\n      add\n        /* \"#utility.yul\":6483:6495   */\n      dup3\n        /* \"#utility.yul\":6449:6512   */\n      tag_108\n      jump\t// in\n    tag_196:\n        /* \"#utility.yul\":6354:6522   */\n      pop\n        /* \"#utility.yul\":6603:6607   */\n      0x40\n        /* \"#utility.yul\":6596:6601   */\n      dup3\n        /* \"#utility.yul\":6592:6608   */\n      add\n        /* \"#utility.yul\":6586:6609   */\n      mload\n        /* \"#utility.yul\":6622:6683   */\n      tag_197\n        /* \"#utility.yul\":6677:6681   */\n      0x40\n        /* \"#utility.yul\":6672:6675   */\n      dup6\n        /* \"#utility.yul\":6668:6682   */\n      add\n        /* \"#utility.yul\":6654:6666   */\n      dup3\n        /* \"#utility.yul\":6622:6683   */\n      tag_109\n      jump\t// in\n    tag_197:\n        /* \"#utility.yul\":6532:6693   */\n      pop\n        /* \"#utility.yul\":6780:6784   */\n      0x60\n        /* \"#utility.yul\":6773:6778   */\n      dup3\n        /* \"#utility.yul\":6769:6785   */\n      add\n        /* \"#utility.yul\":6763:6786   */\n      mload\n        /* \"#utility.yul\":6799:6862   */\n      tag_198\n        /* \"#utility.yul\":6856:6860   */\n      0x60\n        /* \"#utility.yul\":6851:6854   */\n      dup6\n        /* \"#utility.yul\":6847:6861   */\n      add\n        /* \"#utility.yul\":6833:6845   */\n      dup3\n        /* \"#utility.yul\":6799:6862   */\n      tag_108\n      jump\t// in\n    tag_198:\n        /* \"#utility.yul\":6703:6872   */\n      pop\n        /* \"#utility.yul\":6958:6962   */\n      0x80\n        /* \"#utility.yul\":6951:6956   */\n      dup3\n        /* \"#utility.yul\":6947:6963   */\n      add\n        /* \"#utility.yul\":6941:6964   */\n      mload\n        /* \"#utility.yul\":6977:7040   */\n      tag_199\n        /* \"#utility.yul\":7034:7038   */\n      0x80\n        /* \"#utility.yul\":7029:7032   */\n      dup6\n        /* \"#utility.yul\":7025:7039   */\n      add\n        /* \"#utility.yul\":7011:7023   */\n      dup3\n        /* \"#utility.yul\":6977:7040   */\n      tag_110\n      jump\t// in\n    tag_199:\n        /* \"#utility.yul\":6882:7050   */\n      pop\n        /* \"#utility.yul\":7136:7140   */\n      0xa0\n        /* \"#utility.yul\":7129:7134   */\n      dup3\n        /* \"#utility.yul\":7125:7141   */\n      add\n        /* \"#utility.yul\":7119:7142   */\n      mload\n        /* \"#utility.yul\":7155:7218   */\n      tag_200\n        /* \"#utility.yul\":7212:7216   */\n      0xa0\n        /* \"#utility.yul\":7207:7210   */\n      dup6\n        /* \"#utility.yul\":7203:7217   */\n      add\n        /* \"#utility.yul\":7189:7201   */\n      dup3\n        /* \"#utility.yul\":7155:7218   */\n      tag_110\n      jump\t// in\n    tag_200:\n        /* \"#utility.yul\":7060:7228   */\n      pop\n        /* \"#utility.yul\":7322:7326   */\n      0xc0\n        /* \"#utility.yul\":7315:7320   */\n      dup3\n        /* \"#utility.yul\":7311:7327   */\n      add\n        /* \"#utility.yul\":7305:7328   */\n      mload\n        /* \"#utility.yul\":7341:7404   */\n      tag_201\n        /* \"#utility.yul\":7398:7402   */\n      0xc0\n        /* \"#utility.yul\":7393:7396   */\n      dup6\n        /* \"#utility.yul\":7389:7403   */\n      add\n        /* \"#utility.yul\":7375:7387   */\n      dup3\n        /* \"#utility.yul\":7341:7404   */\n      tag_110\n      jump\t// in\n    tag_201:\n        /* \"#utility.yul\":7238:7414   */\n      pop\n        /* \"#utility.yul\":7509:7513   */\n      0xe0\n        /* \"#utility.yul\":7502:7507   */\n      dup3\n        /* \"#utility.yul\":7498:7514   */\n      add\n        /* \"#utility.yul\":7492:7515   */\n      mload\n        /* \"#utility.yul\":7528:7591   */\n      tag_202\n        /* \"#utility.yul\":7585:7589   */\n      0xe0\n        /* \"#utility.yul\":7580:7583   */\n      dup6\n        /* \"#utility.yul\":7576:7590   */\n      add\n        /* \"#utility.yul\":7562:7574   */\n      dup3\n        /* \"#utility.yul\":7528:7591   */\n      tag_111\n      jump\t// in\n    tag_202:\n        /* \"#utility.yul\":7424:7601   */\n      pop\n        /* \"#utility.yul\":6129:7608   */\n      pop\n        /* \"#utility.yul\":5987:7608   */\n      pop\n      pop\n      jump\t// out\n        /* \"#utility.yul\":7614:7989   */\n    tag_59:\n        /* \"#utility.yul\":7783:7787   */\n      0x00\n        /* \"#utility.yul\":7821:7824   */\n      0x0100\n        /* \"#utility.yul\":7810:7819   */\n      dup3\n        /* \"#utility.yul\":7806:7825   */\n      add\n        /* \"#utility.yul\":7798:7825   */\n      swap1\n      pop\n        /* \"#utility.yul\":7835:7982   */\n      tag_204\n        /* \"#utility.yul\":7979:7980   */\n      0x00\n        /* \"#utility.yul\":7968:7977   */\n      dup4\n        /* \"#utility.yul\":7964:7981   */\n      add\n        /* \"#utility.yul\":7955:7961   */\n      dup5\n        /* \"#utility.yul\":7835:7982   */\n      tag_112\n      jump\t// in\n    tag_204:\n        /* \"#utility.yul\":7614:7989   */\n      swap3\n      swap2\n      pop\n      pop\n      jump\t// out\n        /* \"#utility.yul\":7995:8138   */\n    tag_113:\n        /* \"#utility.yul\":8052:8057   */\n      0x00\n        /* \"#utility.yul\":8083:8089   */\n      dup2\n        /* \"#utility.yul\":8077:8090   */\n      mload\n        /* \"#utility.yul\":8068:8090   */\n      swap1\n      pop\n        /* \"#utility.yul\":8099:8132   */\n      tag_206\n        /* \"#utility.yul\":8126:8131   */\n      dup2\n        /* \"#utility.yul\":8099:8132   */\n      tag_100\n      jump\t// in\n    tag_206:\n        /* \"#utility.yul\":7995:8138   */\n      swap3\n      swap2\n      pop\n      pop\n      jump\t// out\n        /* \"#utility.yul\":8144:8495   */\n    tag_63:\n        /* \"#utility.yul\":8214:8220   */\n      0x00\n        /* \"#utility.yul\":8263:8265   */\n      0x20\n        /* \"#utility.yul\":8251:8260   */\n      dup3\n        /* \"#utility.yul\":8242:8249   */\n      dup5\n        /* \"#utility.yul\":8238:8261   */\n      sub\n        /* \"#utility.yul\":8234:8266   */\n      slt\n        /* \"#utility.yul\":8231:8350   */\n      iszero\n      tag_208\n      jumpi\n        /* \"#utility.yul\":8269:8348   */\n      tag_209\n      tag_97\n      jump\t// in\n    tag_209:\n        /* \"#utility.yul\":8231:8350   */\n    tag_208:\n        /* \"#utility.yul\":8389:8390   */\n      0x00\n        /* \"#utility.yul\":8414:8478   */\n      tag_210\n        /* \"#utility.yul\":8470:8477   */\n      dup5\n        /* \"#utility.yul\":8461:8467   */\n      dup3\n        /* \"#utility.yul\":8450:8459   */\n      dup6\n        /* \"#utility.yul\":8446:8468   */\n      add\n        /* \"#utility.yul\":8414:8478   */\n      tag_113\n      jump\t// in\n    tag_210:\n        /* \"#utility.yul\":8404:8478   */\n      swap2\n      pop\n        /* \"#utility.yul\":8360:8488   */\n      pop\n        /* \"#utility.yul\":8144:8495   */\n      swap3\n      swap2\n      pop\n      pop\n      jump\t// out\n        /* \"#utility.yul\":8597:10220   */\n    tag_114:\n        /* \"#utility.yul\":8772:8778   */\n      0x0100\n        /* \"#utility.yul\":8767:8770   */\n      dup3\n        /* \"#utility.yul\":8763:8779   */\n      add\n        /* \"#utility.yul\":8864:8868   */\n      0x00\n        /* \"#utility.yul\":8857:8862   */\n      dup3\n        /* \"#utility.yul\":8853:8869   */\n      add\n        /* \"#utility.yul\":8847:8870   */\n      mload\n        /* \"#utility.yul\":8883:8946   */\n      tag_212\n        /* \"#utility.yul\":8940:8944   */\n      0x00\n        /* \"#utility.yul\":8935:8938   */\n      dup6\n        /* \"#utility.yul\":8931:8945   */\n      add\n        /* \"#utility.yul\":8917:8929   */\n      dup3\n        /* \"#utility.yul\":8883:8946   */\n      tag_108\n      jump\t// in\n    tag_212:\n        /* \"#utility.yul\":8789:8956   */\n      pop\n        /* \"#utility.yul\":9042:9046   */\n      0x20\n        /* \"#utility.yul\":9035:9040   */\n      dup3\n        /* \"#utility.yul\":9031:9047   */\n      add\n        /* \"#utility.yul\":9025:9048   */\n      mload\n        /* \"#utility.yul\":9061:9124   */\n      tag_213\n        /* \"#utility.yul\":9118:9122   */\n      0x20\n        /* \"#utility.yul\":9113:9116   */\n      dup6\n        /* \"#utility.yul\":9109:9123   */\n      add\n        /* \"#utility.yul\":9095:9107   */\n      dup3\n        /* \"#utility.yul\":9061:9124   */\n      tag_108\n      jump\t// in\n    tag_213:\n        /* \"#utility.yul\":8966:9134   */\n      pop\n        /* \"#utility.yul\":9215:9219   */\n      0x40\n        /* \"#utility.yul\":9208:9213   */\n      dup3\n        /* \"#utility.yul\":9204:9220   */\n      add\n        /* \"#utility.yul\":9198:9221   */\n      mload\n        /* \"#utility.yul\":9234:9295   */\n      tag_214\n        /* \"#utility.yul\":9289:9293   */\n      0x40\n        /* \"#utility.yul\":9284:9287   */\n      dup6\n        /* \"#utility.yul\":9280:9294   */\n      add\n        /* \"#utility.yul\":9266:9278   */\n      dup3\n        /* \"#utility.yul\":9234:9295   */\n      tag_109\n      jump\t// in\n    tag_214:\n        /* \"#utility.yul\":9144:9305   */\n      pop\n        /* \"#utility.yul\":9392:9396   */\n      0x60\n        /* \"#utility.yul\":9385:9390   */\n      dup3\n        /* \"#utility.yul\":9381:9397   */\n      add\n        /* \"#utility.yul\":9375:9398   */\n      mload\n        /* \"#utility.yul\":9411:9474   */\n      tag_215\n        /* \"#utility.yul\":9468:9472   */\n      0x60\n        /* \"#utility.yul\":9463:9466   */\n      dup6\n        /* \"#utility.yul\":9459:9473   */\n      add\n        /* \"#utility.yul\":9445:9457   */\n      dup3\n        /* \"#utility.yul\":9411:9474   */\n      tag_108\n      jump\t// in\n    tag_215:\n        /* \"#utility.yul\":9315:9484   */\n      pop\n        /* \"#utility.yul\":9570:9574   */\n      0x80\n        /* \"#utility.yul\":9563:9568   */\n      dup3\n        /* \"#utility.yul\":9559:9575   */\n      add\n        /* \"#utility.yul\":9553:9576   */\n      mload\n        /* \"#utility.yul\":9589:9652   */\n      tag_216\n        /* \"#utility.yul\":9646:9650   */\n      0x80\n        /* \"#utility.yul\":9641:9644   */\n      dup6\n        /* \"#utility.yul\":9637:9651   */\n      add\n        /* \"#utility.yul\":9623:9635   */\n      dup3\n        /* \"#utility.yul\":9589:9652   */\n      tag_110\n      jump\t// in\n    tag_216:\n        /* \"#utility.yul\":9494:9662   */\n      pop\n        /* \"#utility.yul\":9749:9753   */\n      0xa0\n        /* \"#utility.yul\":9742:9747   */\n      dup3\n        /* \"#utility.yul\":9738:9754   */\n      add\n        /* \"#utility.yul\":9732:9755   */\n      mload\n        /* \"#utility.yul\":9768:9831   */\n      tag_217\n        /* \"#utility.yul\":9825:9829   */\n      0xa0\n        /* \"#utility.yul\":9820:9823   */\n      dup6\n        /* \"#utility.yul\":9816:9830   */\n      add\n        /* \"#utility.yul\":9802:9814   */\n      dup3\n        /* \"#utility.yul\":9768:9831   */\n      tag_110\n      jump\t// in\n    tag_217:\n        /* \"#utility.yul\":9672:9841   */\n      pop\n        /* \"#utility.yul\":9934:9938   */\n      0xc0\n        /* \"#utility.yul\":9927:9932   */\n      dup3\n        /* \"#utility.yul\":9923:9939   */\n      add\n        /* \"#utility.yul\":9917:9940   */\n      mload\n        /* \"#utility.yul\":9953:10016   */\n      tag_218\n        /* \"#utility.yul\":10010:10014   */\n      0xc0\n        /* \"#utility.yul\":10005:10008   */\n      dup6\n        /* \"#utility.yul\":10001:10015   */\n      add\n        /* \"#utility.yul\":9987:9999   */\n      dup3\n        /* \"#utility.yul\":9953:10016   */\n      tag_110\n      jump\t// in\n    tag_218:\n        /* \"#utility.yul\":9851:10026   */\n      pop\n        /* \"#utility.yul\":10121:10125   */\n      0xe0\n        /* \"#utility.yul\":10114:10119   */\n      dup3\n        /* \"#utility.yul\":10110:10126   */\n      add\n        /* \"#utility.yul\":10104:10127   */\n      mload\n        /* \"#utility.yul\":10140:10203   */\n      tag_219\n        /* \"#utility.yul\":10197:10201   */\n      0xe0\n        /* \"#utility.yul\":10192:10195   */\n      dup6\n        /* \"#utility.yul\":10188:10202   */\n      add\n        /* \"#utility.yul\":10174:10186   */\n      dup3\n        /* \"#utility.yul\":10140:10203   */\n      tag_111\n      jump\t// in\n    tag_219:\n        /* \"#utility.yul\":10036:10213   */\n      pop\n        /* \"#utility.yul\":8741:10220   */\n      pop\n        /* \"#utility.yul\":8597:10220   */\n      pop\n      pop\n      jump\t// out\n        /* \"#utility.yul\":10226:10605   */\n    tag_70:\n        /* \"#utility.yul\":10397:10401   */\n      0x00\n        /* \"#utility.yul\":10435:10438   */\n      0x0100\n        /* \"#utility.yul\":10424:10433   */\n      dup3\n        /* \"#utility.yul\":10420:10439   */\n      add\n        /* \"#utility.yul\":10412:10439   */\n      swap1\n      pop\n        /* \"#utility.yul\":10449:10598   */\n      tag_221\n        /* \"#utility.yul\":10595:10596   */\n      0x00\n        /* \"#utility.yul\":10584:10593   */\n      dup4\n        /* \"#utility.yul\":10580:10597   */\n      add\n        /* \"#utility.yul\":10571:10577   */\n      dup5\n        /* \"#utility.yul\":10449:10598   */\n      tag_114\n      jump\t// in\n    tag_221:\n        /* \"#utility.yul\":10226:10605   */\n      swap3\n      swap2\n      pop\n      pop\n      jump\t// out\n        /* \"#utility.yul\":10611:10696   */\n    tag_115:\n        /* \"#utility.yul\":10656:10663   */\n      0x00\n        /* \"#utility.yul\":10685:10690   */\n      dup2\n        /* \"#utility.yul\":10674:10690   */\n      swap1\n      pop\n        /* \"#utility.yul\":10611:10696   */\n      swap2\n      swap1\n      pop\n      jump\t// out\n        /* \"#utility.yul\":10702:10860   */\n    tag_116:\n        /* \"#utility.yul\":10760:10769   */\n      0x00\n        /* \"#utility.yul\":10793:10854   */\n      tag_224\n        /* \"#utility.yul\":10811:10853   */\n      tag_225\n        /* \"#utility.yul\":10820:10852   */\n      tag_226\n        /* \"#utility.yul\":10846:10851   */\n      dup5\n        /* \"#utility.yul\":10820:10852   */\n      tag_115\n      jump\t// in\n    tag_226:\n        /* \"#utility.yul\":10811:10853   */\n      tag_91\n      jump\t// in\n    tag_225:\n        /* \"#utility.yul\":10793:10854   */\n      tag_99\n      jump\t// in\n    tag_224:\n        /* \"#utility.yul\":10780:10854   */\n      swap1\n      pop\n        /* \"#utility.yul\":10702:10860   */\n      swap2\n      swap1\n      pop\n      jump\t// out\n        /* \"#utility.yul\":10866:11013   */\n    tag_117:\n        /* \"#utility.yul\":10961:11006   */\n      tag_228\n        /* \"#utility.yul\":11000:11005   */\n      dup2\n        /* \"#utility.yul\":10961:11006   */\n      tag_116\n      jump\t// in\n    tag_228:\n        /* \"#utility.yul\":10956:10959   */\n      dup3\n        /* \"#utility.yul\":10949:11007   */\n      mstore\n        /* \"#utility.yul\":10866:11013   */\n      pop\n      pop\n      jump\t// out\n        /* \"#utility.yul\":11019:11367   */\n    tag_76:\n        /* \"#utility.yul\":11148:11152   */\n      0x00\n        /* \"#utility.yul\":11186:11188   */\n      0x40\n        /* \"#utility.yul\":11175:11184   */\n      dup3\n        /* \"#utility.yul\":11171:11189   */\n      add\n        /* \"#utility.yul\":11163:11189   */\n      swap1\n      pop\n        /* \"#utility.yul\":11199:11270   */\n      tag_230\n        /* \"#utility.yul\":11267:11268   */\n      0x00\n        /* \"#utility.yul\":11256:11265   */\n      dup4\n        /* \"#utility.yul\":11252:11269   */\n      add\n        /* \"#utility.yul\":11243:11249   */\n      dup6\n        /* \"#utility.yul\":11199:11270   */\n      tag_90\n      jump\t// in\n    tag_230:\n        /* \"#utility.yul\":11280:11360   */\n      tag_231\n        /* \"#utility.yul\":11356:11358   */\n      0x20\n        /* \"#utility.yul\":11345:11354   */\n      dup4\n        /* \"#utility.yul\":11341:11359   */\n      add\n        /* \"#utility.yul\":11332:11338   */\n      dup5\n        /* \"#utility.yul\":11280:11360   */\n      tag_117\n      jump\t// in\n    tag_231:\n        /* \"#utility.yul\":11019:11367   */\n      swap4\n      swap3\n      pop\n      pop\n      pop\n      jump\t// out\n        /* \"#utility.yul\":11373:11553   */\n    tag_118:\n        /* \"#utility.yul\":11421:11498   */\n      0x4e487b7100000000000000000000000000000000000000000000000000000000\n        /* \"#utility.yul\":11418:11419   */\n      0x00\n        /* \"#utility.yul\":11411:11499   */\n      mstore\n        /* \"#utility.yul\":11518:11522   */\n      0x11\n        /* \"#utility.yul\":11515:11516   */\n      0x04\n        /* \"#utility.yul\":11508:11523   */\n      mstore\n        /* \"#utility.yul\":11542:11546   */\n      0x24\n        /* \"#utility.yul\":11539:11540   */\n      0x00\n        /* \"#utility.yul\":11532:11547   */\n      revert\n        /* \"#utility.yul\":11559:11753   */\n    tag_81:\n        /* \"#utility.yul\":11599:11603   */\n      0x00\n        /* \"#utility.yul\":11619:11639   */\n      tag_234\n        /* \"#utility.yul\":11637:11638   */\n      dup3\n        /* \"#utility.yul\":11619:11639   */\n      tag_99\n      jump\t// in\n    tag_234:\n        /* \"#utility.yul\":11614:11639   */\n      swap2\n      pop\n        /* \"#utility.yul\":11653:11673   */\n      tag_235\n        /* \"#utility.yul\":11671:11672   */\n      dup4\n        /* \"#utility.yul\":11653:11673   */\n      tag_99\n      jump\t// in\n    tag_235:\n        /* \"#utility.yul\":11648:11673   */\n      swap3\n      pop\n        /* \"#utility.yul\":11697:11698   */\n      dup3\n        /* \"#utility.yul\":11694:11695   */\n      dup3\n        /* \"#utility.yul\":11690:11699   */\n      sub\n        /* \"#utility.yul\":11682:11699   */\n      swap1\n      pop\n        /* \"#utility.yul\":11721:11722   */\n      dup2\n        /* \"#utility.yul\":11715:11719   */\n      dup2\n        /* \"#utility.yul\":11712:11723   */\n      gt\n        /* \"#utility.yul\":11709:11746   */\n      iszero\n      tag_236\n      jumpi\n        /* \"#utility.yul\":11726:11744   */\n      tag_237\n      tag_118\n      jump\t// in\n    tag_237:\n        /* \"#utility.yul\":11709:11746   */\n    tag_236:\n        /* \"#utility.yul\":11559:11753   */\n      swap3\n      swap2\n      pop\n      pop\n      jump\t// out\n\n    auxdata: 0xa2646970667358221220c4a9b9f86f0af11a640081dafb55692b58eba39968e49787f01cc17e4269359164736f6c63430008170033\n}\n",
				"bytecode": {
					"linkReferences": {},
					"object": "60a060405273e592427a0aece92de3edee1f18e0157c0586156473ffffffffffffffffffffffffffffffffffffffff1660809073ffffffffffffffffffffffffffffffffffffffff1681525073326c977e6efc84e512bb9c30f76e30c160ed06fb5f806101000a81548173ffffffffffffffffffffffffffffffffffffffff021916908373ffffffffffffffffffffffffffffffffffffffff1602179055503480156100a9575f80fd5b50608051610d996100e55f395f818161027e015281816103c20152818161047b015281816104dc0152818161062001526106fe0152610d995ff3fe60806040526004361061007a575f3560e01c806373bd43ad1161004d57806373bd43ad14610126578063ad5c464814610156578063c31c9c0714610180578063c4b69a18146101aa5761007a565b8063089fe6aa1461007e5780631b6b6d23146100a85780632ae7543f146100d25780633268cc56146100fc575b5f80fd5b348015610089575f80fd5b506100926101e6565b60405161009f9190610847565b60405180910390f35b3480156100b3575f80fd5b506100bc6101ec565b6040516100c9919061089f565b60405180910390f35b3480156100dd575f80fd5b506100e6610204565b6040516100f39190610913565b60405180910390f35b348015610107575f80fd5b50610110610227565b60405161011d919061089f565b60405180910390f35b610140600480360381019061013b9190610963565b61023f565b60405161014d919061099d565b60405180910390f35b348015610161575f80fd5b5061016a610461565b604051610177919061089f565b60405180910390f35b34801561018b575f80fd5b50610194610479565b6040516101a191906109d6565b60405180910390f35b3480156101b5575f80fd5b506101d060048036038101906101cb91906109ef565b61049d565b6040516101dd919061099d565b60405180910390f35b610bb881565b73326c977e6efc84e512bb9c30f76e30c160ed06fb81565b5f8054906101000a900473ffffffffffffffffffffffffffffffffffffffff1681565b73e592427a0aece92de3edee1f18e0157c0586156481565b5f805f9054906101000a900473ffffffffffffffffffffffffffffffffffffffff1673ffffffffffffffffffffffffffffffffffffffff1663095ea7b37f0000000000000000000000000000000000000000000000000000000000000000846040518363ffffffff1660e01b81526004016102bb929190610a2d565b6020604051808303815f875af11580156102d7573d5f803e3d5ffd5b505050506040513d601f19601f820116820180604052508101906102fb9190610a89565b505f60405180610100016040528073326c977e6efc84e512bb9c30f76e30c160ed06fb73ffffffffffffffffffffffffffffffffffffffff16815260200173b4fbf271143f4fbf7b91a5ded31805e42b2208d673ffffffffffffffffffffffffffffffffffffffff168152602001610bb862ffffff1681526020013073ffffffffffffffffffffffffffffffffffffffff1681526020014281526020018481526020015f81526020015f73ffffffffffffffffffffffffffffffffffffffff1681525090507f000000000000000000000000000000000000000000000000000000000000000073ffffffffffffffffffffffffffffffffffffffff1663414bf389826040518263ffffffff1660e01b81526004016104199190610b90565b6020604051808303815f875af1158015610435573d5f803e3d5ffd5b505050506040513d601f19601f820116820180604052508101906104599190610bbe565b915050919050565b73b4fbf271143f4fbf7b91a5ded31805e42b2208d681565b7f000000000000000000000000000000000000000000000000000000000000000081565b5f805f9054906101000a900473ffffffffffffffffffffffffffffffffffffffff1673ffffffffffffffffffffffffffffffffffffffff1663095ea7b37f0000000000000000000000000000000000000000000000000000000000000000846040518363ffffffff1660e01b8152600401610519929190610a2d565b6020604051808303815f875af1158015610535573d5f803e3d5ffd5b505050506040513d601f19601f820116820180604052508101906105599190610a89565b505f60405180610100016040528073326c977e6efc84e512bb9c30f76e30c160ed06fb73ffffffffffffffffffffffffffffffffffffffff16815260200173b4fbf271143f4fbf7b91a5ded31805e42b2208d673ffffffffffffffffffffffffffffffffffffffff168152602001610bb862ffffff1681526020013073ffffffffffffffffffffffffffffffffffffffff1681526020014281526020018581526020018481526020015f73ffffffffffffffffffffffffffffffffffffffff1681525090507f000000000000000000000000000000000000000000000000000000000000000073ffffffffffffffffffffffffffffffffffffffff1663db3e2198826040518263ffffffff1660e01b81526004016106779190610c89565b6020604051808303815f875af1158015610693573d5f803e3d5ffd5b505050506040513d601f19601f820116820180604052508101906106b79190610bbe565b915082821015610823575f8054906101000a900473ffffffffffffffffffffffffffffffffffffffff1673ffffffffffffffffffffffffffffffffffffffff1663095ea7b37f00000000000000000000000000000000000000000000000000000000000000005f6040518363ffffffff1660e01b815260040161073b929190610cdc565b6020604051808303815f875af1158015610757573d5f803e3d5ffd5b505050506040513d601f19601f8201168201806040525081019061077b9190610a89565b505f8054906101000a900473ffffffffffffffffffffffffffffffffffffffff1673ffffffffffffffffffffffffffffffffffffffff1663a9059cbb3084866107c49190610d30565b6040518363ffffffff1660e01b81526004016107e1929190610a2d565b6020604051808303815f875af11580156107fd573d5f803e3d5ffd5b505050506040513d601f19601f820116820180604052508101906108219190610a89565b505b5092915050565b5f62ffffff82169050919050565b6108418161082a565b82525050565b5f60208201905061085a5f830184610838565b92915050565b5f73ffffffffffffffffffffffffffffffffffffffff82169050919050565b5f61088982610860565b9050919050565b6108998161087f565b82525050565b5f6020820190506108b25f830184610890565b92915050565b5f819050919050565b5f6108db6108d66108d184610860565b6108b8565b610860565b9050919050565b5f6108ec826108c1565b9050919050565b5f6108fd826108e2565b9050919050565b61090d816108f3565b82525050565b5f6020820190506109265f830184610904565b92915050565b5f80fd5b5f819050919050565b61094281610930565b811461094c575f80fd5b50565b5f8135905061095d81610939565b92915050565b5f602082840312156109785761097761092c565b5b5f6109858482850161094f565b91505092915050565b61099781610930565b82525050565b5f6020820190506109b05f83018461098e565b92915050565b5f6109c0826108e2565b9050919050565b6109d0816109b6565b82525050565b5f6020820190506109e95f8301846109c7565b92915050565b5f8060408385031215610a0557610a0461092c565b5b5f610a128582860161094f565b9250506020610a238582860161094f565b9150509250929050565b5f604082019050610a405f830185610890565b610a4d602083018461098e565b9392505050565b5f8115159050919050565b610a6881610a54565b8114610a72575f80fd5b50565b5f81519050610a8381610a5f565b92915050565b5f60208284031215610a9e57610a9d61092c565b5b5f610aab84828501610a75565b91505092915050565b610abd8161087f565b82525050565b610acc8161082a565b82525050565b610adb81610930565b82525050565b610aea81610860565b82525050565b61010082015f820151610b055f850182610ab4565b506020820151610b186020850182610ab4565b506040820151610b2b6040850182610ac3565b506060820151610b3e6060850182610ab4565b506080820151610b516080850182610ad2565b5060a0820151610b6460a0850182610ad2565b5060c0820151610b7760c0850182610ad2565b5060e0820151610b8a60e0850182610ae1565b50505050565b5f61010082019050610ba45f830184610af0565b92915050565b5f81519050610bb881610939565b92915050565b5f60208284031215610bd357610bd261092c565b5b5f610be084828501610baa565b91505092915050565b61010082015f820151610bfe5f850182610ab4565b506020820151610c116020850182610ab4565b506040820151610c246040850182610ac3565b506060820151610c376060850182610ab4565b506080820151610c4a6080850182610ad2565b5060a0820151610c5d60a0850182610ad2565b5060c0820151610c7060c0850182610ad2565b5060e0820151610c8360e0850182610ae1565b50505050565b5f61010082019050610c9d5f830184610be9565b92915050565b5f819050919050565b5f610cc6610cc1610cbc84610ca3565b6108b8565b610930565b9050919050565b610cd681610cac565b82525050565b5f604082019050610cef5f830185610890565b610cfc6020830184610ccd565b9392505050565b7f4e487b71000000000000000000000000000000000000000000000000000000005f52601160045260245ffd5b5f610d3a82610930565b9150610d4583610930565b9250828203905081811115610d5d57610d5c610d03565b5b9291505056fea2646970667358221220c4a9b9f86f0af11a640081dafb55692b58eba39968e49787f01cc17e4269359164736f6c63430008170033",
					"opcodes": "PUSH1 0xA0 PUSH1 0x40 MSTORE PUSH20 0xE592427A0AECE92DE3EDEE1F18E0157C05861564 PUSH20 0xFFFFFFFFFFFFFFFFFFFFFFFFFFFFFFFFFFFFFFFF AND PUSH1 0x80 SWAP1 PUSH20 0xFFFFFFFFFFFFFFFFFFFFFFFFFFFFFFFFFFFFFFFF AND DUP2 MSTORE POP PUSH20 0x326C977E6EFC84E512BB9C30F76E30C160ED06FB PUSH0 DUP1 PUSH2 0x100 EXP DUP2 SLOAD DUP2 PUSH20 0xFFFFFFFFFFFFFFFFFFFFFFFFFFFFFFFFFFFFFFFF MUL NOT AND SWAP1 DUP4 PUSH20 0xFFFFFFFFFFFFFFFFFFFFFFFFFFFFFFFFFFFFFFFF AND MUL OR SWAP1 SSTORE POP CALLVALUE DUP1 ISZERO PUSH2 0xA9 JUMPI PUSH0 DUP1 REVERT JUMPDEST POP PUSH1 0x80 MLOAD PUSH2 0xD99 PUSH2 0xE5 PUSH0 CODECOPY PUSH0 DUP2 DUP2 PUSH2 0x27E ADD MSTORE DUP2 DUP2 PUSH2 0x3C2 ADD MSTORE DUP2 DUP2 PUSH2 0x47B ADD MSTORE DUP2 DUP2 PUSH2 0x4DC ADD MSTORE DUP2 DUP2 PUSH2 0x620 ADD MSTORE PUSH2 0x6FE ADD MSTORE PUSH2 0xD99 PUSH0 RETURN INVALID PUSH1 0x80 PUSH1 0x40 MSTORE PUSH1 0x4 CALLDATASIZE LT PUSH2 0x7A JUMPI PUSH0 CALLDATALOAD PUSH1 0xE0 SHR DUP1 PUSH4 0x73BD43AD GT PUSH2 0x4D JUMPI DUP1 PUSH4 0x73BD43AD EQ PUSH2 0x126 JUMPI DUP1 PUSH4 0xAD5C4648 EQ PUSH2 0x156 JUMPI DUP1 PUSH4 0xC31C9C07 EQ PUSH2 0x180 JUMPI DUP1 PUSH4 0xC4B69A18 EQ PUSH2 0x1AA JUMPI PUSH2 0x7A JUMP JUMPDEST DUP1 PUSH4 0x89FE6AA EQ PUSH2 0x7E JUMPI DUP1 PUSH4 0x1B6B6D23 EQ PUSH2 0xA8 JUMPI DUP1 PUSH4 0x2AE7543F EQ PUSH2 0xD2 JUMPI DUP1 PUSH4 0x3268CC56 EQ PUSH2 0xFC JUMPI JUMPDEST PUSH0 DUP1 REVERT JUMPDEST CALLVALUE DUP1 ISZERO PUSH2 0x89 JUMPI PUSH0 DUP1 REVERT JUMPDEST POP PUSH2 0x92 PUSH2 0x1E6 JUMP JUMPDEST PUSH1 0x40 MLOAD PUSH2 0x9F SWAP2 SWAP1 PUSH2 0x847 JUMP JUMPDEST PUSH1 0x40 MLOAD DUP1 SWAP2 SUB SWAP1 RETURN JUMPDEST CALLVALUE DUP1 ISZERO PUSH2 0xB3 JUMPI PUSH0 DUP1 REVERT JUMPDEST POP PUSH2 0xBC PUSH2 0x1EC JUMP JUMPDEST PUSH1 0x40 MLOAD PUSH2 0xC9 SWAP2 SWAP1 PUSH2 0x89F JUMP JUMPDEST PUSH1 0x40 MLOAD DUP1 SWAP2 SUB SWAP1 RETURN JUMPDEST CALLVALUE DUP1 ISZERO PUSH2 0xDD JUMPI PUSH0 DUP1 REVERT JUMPDEST POP PUSH2 0xE6 PUSH2 0x204 JUMP JUMPDEST PUSH1 0x40 MLOAD PUSH2 0xF3 SWAP2 SWAP1 PUSH2 0x913 JUMP JUMPDEST PUSH1 0x40 MLOAD DUP1 SWAP2 SUB SWAP1 RETURN JUMPDEST CALLVALUE DUP1 ISZERO PUSH2 0x107 JUMPI PUSH0 DUP1 REVERT JUMPDEST POP PUSH2 0x110 PUSH2 0x227 JUMP JUMPDEST PUSH1 0x40 MLOAD PUSH2 0x11D SWAP2 SWAP1 PUSH2 0x89F JUMP JUMPDEST PUSH1 0x40 MLOAD DUP1 SWAP2 SUB SWAP1 RETURN JUMPDEST PUSH2 0x140 PUSH1 0x4 DUP1 CALLDATASIZE SUB DUP2 ADD SWAP1 PUSH2 0x13B SWAP2 SWAP1 PUSH2 0x963 JUMP JUMPDEST PUSH2 0x23F JUMP JUMPDEST PUSH1 0x40 MLOAD PUSH2 0x14D SWAP2 SWAP1 PUSH2 0x99D JUMP JUMPDEST PUSH1 0x40 MLOAD DUP1 SWAP2 SUB SWAP1 RETURN JUMPDEST CALLVALUE DUP1 ISZERO PUSH2 0x161 JUMPI PUSH0 DUP1 REVERT JUMPDEST POP PUSH2 0x16A PUSH2 0x461 JUMP JUMPDEST PUSH1 0x40 MLOAD PUSH2 0x177 SWAP2 SWAP1 PUSH2 0x89F JUMP JUMPDEST PUSH1 0x40 MLOAD DUP1 SWAP2 SUB SWAP1 RETURN JUMPDEST CALLVALUE DUP1 ISZERO PUSH2 0x18B JUMPI PUSH0 DUP1 REVERT JUMPDEST POP PUSH2 0x194 PUSH2 0x479 JUMP JUMPDEST PUSH1 0x40 MLOAD PUSH2 0x1A1 SWAP2 SWAP1 PUSH2 0x9D6 JUMP JUMPDEST PUSH1 0x40 MLOAD DUP1 SWAP2 SUB SWAP1 RETURN JUMPDEST CALLVALUE DUP1 ISZERO PUSH2 0x1B5 JUMPI PUSH0 DUP1 REVERT JUMPDEST POP PUSH2 0x1D0 PUSH1 0x4 DUP1 CALLDATASIZE SUB DUP2 ADD SWAP1 PUSH2 0x1CB SWAP2 SWAP1 PUSH2 0x9EF JUMP JUMPDEST PUSH2 0x49D JUMP JUMPDEST PUSH1 0x40 MLOAD PUSH2 0x1DD SWAP2 SWAP1 PUSH2 0x99D JUMP JUMPDEST PUSH1 0x40 MLOAD DUP1 SWAP2 SUB SWAP1 RETURN JUMPDEST PUSH2 0xBB8 DUP2 JUMP JUMPDEST PUSH20 0x326C977E6EFC84E512BB9C30F76E30C160ED06FB DUP2 JUMP JUMPDEST PUSH0 DUP1 SLOAD SWAP1 PUSH2 0x100 EXP SWAP1 DIV PUSH20 0xFFFFFFFFFFFFFFFFFFFFFFFFFFFFFFFFFFFFFFFF AND DUP2 JUMP JUMPDEST PUSH20 0xE592427A0AECE92DE3EDEE1F18E0157C05861564 DUP2 JUMP JUMPDEST PUSH0 DUP1 PUSH0 SWAP1 SLOAD SWAP1 PUSH2 0x100 EXP SWAP1 DIV PUSH20 0xFFFFFFFFFFFFFFFFFFFFFFFFFFFFFFFFFFFFFFFF AND PUSH20 0xFFFFFFFFFFFFFFFFFFFFFFFFFFFFFFFFFFFFFFFF AND PUSH4 0x95EA7B3 PUSH32 0x0 DUP5 PUSH1 0x40 MLOAD DUP4 PUSH4 0xFFFFFFFF AND PUSH1 0xE0 SHL DUP2 MSTORE PUSH1 0x4 ADD PUSH2 0x2BB SWAP3 SWAP2 SWAP1 PUSH2 0xA2D JUMP JUMPDEST PUSH1 0x20 PUSH1 0x40 MLOAD DUP1 DUP4 SUB DUP2 PUSH0 DUP8 GAS CALL ISZERO DUP1 ISZERO PUSH2 0x2D7 JUMPI RETURNDATASIZE PUSH0 DUP1 RETURNDATACOPY RETURNDATASIZE PUSH0 REVERT JUMPDEST POP POP POP POP PUSH1 0x40 MLOAD RETURNDATASIZE PUSH1 0x1F NOT PUSH1 0x1F DUP3 ADD AND DUP3 ADD DUP1 PUSH1 0x40 MSTORE POP DUP2 ADD SWAP1 PUSH2 0x2FB SWAP2 SWAP1 PUSH2 0xA89 JUMP JUMPDEST POP PUSH0 PUSH1 0x40 MLOAD DUP1 PUSH2 0x100 ADD PUSH1 0x40 MSTORE DUP1 PUSH20 0x326C977E6EFC84E512BB9C30F76E30C160ED06FB PUSH20 0xFFFFFFFFFFFFFFFFFFFFFFFFFFFFFFFFFFFFFFFF AND DUP2 MSTORE PUSH1 0x20 ADD PUSH20 0xB4FBF271143F4FBF7B91A5DED31805E42B2208D6 PUSH20 0xFFFFFFFFFFFFFFFFFFFFFFFFFFFFFFFFFFFFFFFF AND DUP2 MSTORE PUSH1 0x20 ADD PUSH2 0xBB8 PUSH3 0xFFFFFF AND DUP2 MSTORE PUSH1 0x20 ADD ADDRESS PUSH20 0xFFFFFFFFFFFFFFFFFFFFFFFFFFFFFFFFFFFFFFFF AND DUP2 MSTORE PUSH1 0x20 ADD TIMESTAMP DUP2 MSTORE PUSH1 0x20 ADD DUP5 DUP2 MSTORE PUSH1 0x20 ADD PUSH0 DUP2 MSTORE PUSH1 0x20 ADD PUSH0 PUSH20 0xFFFFFFFFFFFFFFFFFFFFFFFFFFFFFFFFFFFFFFFF AND DUP2 MSTORE POP SWAP1 POP PUSH32 0x0 PUSH20 0xFFFFFFFFFFFFFFFFFFFFFFFFFFFFFFFFFFFFFFFF AND PUSH4 0x414BF389 DUP3 PUSH1 0x40 MLOAD DUP3 PUSH4 0xFFFFFFFF AND PUSH1 0xE0 SHL DUP2 MSTORE PUSH1 0x4 ADD PUSH2 0x419 SWAP2 SWAP1 PUSH2 0xB90 JUMP JUMPDEST PUSH1 0x20 PUSH1 0x40 MLOAD DUP1 DUP4 SUB DUP2 PUSH0 DUP8 GAS CALL ISZERO DUP1 ISZERO PUSH2 0x435 JUMPI RETURNDATASIZE PUSH0 DUP1 RETURNDATACOPY RETURNDATASIZE PUSH0 REVERT JUMPDEST POP POP POP POP PUSH1 0x40 MLOAD RETURNDATASIZE PUSH1 0x1F NOT PUSH1 0x1F DUP3 ADD AND DUP3 ADD DUP1 PUSH1 0x40 MSTORE POP DUP2 ADD SWAP1 PUSH2 0x459 SWAP2 SWAP1 PUSH2 0xBBE JUMP JUMPDEST SWAP2 POP POP SWAP2 SWAP1 POP JUMP JUMPDEST PUSH20 0xB4FBF271143F4FBF7B91A5DED31805E42B2208D6 DUP2 JUMP JUMPDEST PUSH32 0x0 DUP2 JUMP JUMPDEST PUSH0 DUP1 PUSH0 SWAP1 SLOAD SWAP1 PUSH2 0x100 EXP SWAP1 DIV PUSH20 0xFFFFFFFFFFFFFFFFFFFFFFFFFFFFFFFFFFFFFFFF AND PUSH20 0xFFFFFFFFFFFFFFFFFFFFFFFFFFFFFFFFFFFFFFFF AND PUSH4 0x95EA7B3 PUSH32 0x0 DUP5 PUSH1 0x40 MLOAD DUP4 PUSH4 0xFFFFFFFF AND PUSH1 0xE0 SHL DUP2 MSTORE PUSH1 0x4 ADD PUSH2 0x519 SWAP3 SWAP2 SWAP1 PUSH2 0xA2D JUMP JUMPDEST PUSH1 0x20 PUSH1 0x40 MLOAD DUP1 DUP4 SUB DUP2 PUSH0 DUP8 GAS CALL ISZERO DUP1 ISZERO PUSH2 0x535 JUMPI RETURNDATASIZE PUSH0 DUP1 RETURNDATACOPY RETURNDATASIZE PUSH0 REVERT JUMPDEST POP POP POP POP PUSH1 0x40 MLOAD RETURNDATASIZE PUSH1 0x1F NOT PUSH1 0x1F DUP3 ADD AND DUP3 ADD DUP1 PUSH1 0x40 MSTORE POP DUP2 ADD SWAP1 PUSH2 0x559 SWAP2 SWAP1 PUSH2 0xA89 JUMP JUMPDEST POP PUSH0 PUSH1 0x40 MLOAD DUP1 PUSH2 0x100 ADD PUSH1 0x40 MSTORE DUP1 PUSH20 0x326C977E6EFC84E512BB9C30F76E30C160ED06FB PUSH20 0xFFFFFFFFFFFFFFFFFFFFFFFFFFFFFFFFFFFFFFFF AND DUP2 MSTORE PUSH1 0x20 ADD PUSH20 0xB4FBF271143F4FBF7B91A5DED31805E42B2208D6 PUSH20 0xFFFFFFFFFFFFFFFFFFFFFFFFFFFFFFFFFFFFFFFF AND DUP2 MSTORE PUSH1 0x20 ADD PUSH2 0xBB8 PUSH3 0xFFFFFF AND DUP2 MSTORE PUSH1 0x20 ADD ADDRESS PUSH20 0xFFFFFFFFFFFFFFFFFFFFFFFFFFFFFFFFFFFFFFFF AND DUP2 MSTORE PUSH1 0x20 ADD TIMESTAMP DUP2 MSTORE PUSH1 0x20 ADD DUP6 DUP2 MSTORE PUSH1 0x20 ADD DUP5 DUP2 MSTORE PUSH1 0x20 ADD PUSH0 PUSH20 0xFFFFFFFFFFFFFFFFFFFFFFFFFFFFFFFFFFFFFFFF AND DUP2 MSTORE POP SWAP1 POP PUSH32 0x0 PUSH20 0xFFFFFFFFFFFFFFFFFFFFFFFFFFFFFFFFFFFFFFFF AND PUSH4 0xDB3E2198 DUP3 PUSH1 0x40 MLOAD DUP3 PUSH4 0xFFFFFFFF AND PUSH1 0xE0 SHL DUP2 MSTORE PUSH1 0x4 ADD PUSH2 0x677 SWAP2 SWAP1 PUSH2 0xC89 JUMP JUMPDEST PUSH1 0x20 PUSH1 0x40 MLOAD DUP1 DUP4 SUB DUP2 PUSH0 DUP8 GAS CALL ISZERO DUP1 ISZERO PUSH2 0x693 JUMPI RETURNDATASIZE PUSH0 DUP1 RETURNDATACOPY RETURNDATASIZE PUSH0 REVERT JUMPDEST POP POP POP POP PUSH1 0x40 MLOAD RETURNDATASIZE PUSH1 0x1F NOT PUSH1 0x1F DUP3 ADD AND DUP3 ADD DUP1 PUSH1 0x40 MSTORE POP DUP2 ADD SWAP1 PUSH2 0x6B7 SWAP2 SWAP1 PUSH2 0xBBE JUMP JUMPDEST SWAP2 POP DUP3 DUP3 LT ISZERO PUSH2 0x823 JUMPI PUSH0 DUP1 SLOAD SWAP1 PUSH2 0x100 EXP SWAP1 DIV PUSH20 0xFFFFFFFFFFFFFFFFFFFFFFFFFFFFFFFFFFFFFFFF AND PUSH20 0xFFFFFFFFFFFFFFFFFFFFFFFFFFFFFFFFFFFFFFFF AND PUSH4 0x95EA7B3 PUSH32 0x0 PUSH0 PUSH1 0x40 MLOAD DUP4 PUSH4 0xFFFFFFFF AND PUSH1 0xE0 SHL DUP2 MSTORE PUSH1 0x4 ADD PUSH2 0x73B SWAP3 SWAP2 SWAP1 PUSH2 0xCDC JUMP JUMPDEST PUSH1 0x20 PUSH1 0x40 MLOAD DUP1 DUP4 SUB DUP2 PUSH0 DUP8 GAS CALL ISZERO DUP1 ISZERO PUSH2 0x757 JUMPI RETURNDATASIZE PUSH0 DUP1 RETURNDATACOPY RETURNDATASIZE PUSH0 REVERT JUMPDEST POP POP POP POP PUSH1 0x40 MLOAD RETURNDATASIZE PUSH1 0x1F NOT PUSH1 0x1F DUP3 ADD AND DUP3 ADD DUP1 PUSH1 0x40 MSTORE POP DUP2 ADD SWAP1 PUSH2 0x77B SWAP2 SWAP1 PUSH2 0xA89 JUMP JUMPDEST POP PUSH0 DUP1 SLOAD SWAP1 PUSH2 0x100 EXP SWAP1 DIV PUSH20 0xFFFFFFFFFFFFFFFFFFFFFFFFFFFFFFFFFFFFFFFF AND PUSH20 0xFFFFFFFFFFFFFFFFFFFFFFFFFFFFFFFFFFFFFFFF AND PUSH4 0xA9059CBB ADDRESS DUP5 DUP7 PUSH2 0x7C4 SWAP2 SWAP1 PUSH2 0xD30 JUMP JUMPDEST PUSH1 0x40 MLOAD DUP4 PUSH4 0xFFFFFFFF AND PUSH1 0xE0 SHL DUP2 MSTORE PUSH1 0x4 ADD PUSH2 0x7E1 SWAP3 SWAP2 SWAP1 PUSH2 0xA2D JUMP JUMPDEST PUSH1 0x20 PUSH1 0x40 MLOAD DUP1 DUP4 SUB DUP2 PUSH0 DUP8 GAS CALL ISZERO DUP1 ISZERO PUSH2 0x7FD JUMPI RETURNDATASIZE PUSH0 DUP1 RETURNDATACOPY RETURNDATASIZE PUSH0 REVERT JUMPDEST POP POP POP POP PUSH1 0x40 MLOAD RETURNDATASIZE PUSH1 0x1F NOT PUSH1 0x1F DUP3 ADD AND DUP3 ADD DUP1 PUSH1 0x40 MSTORE POP DUP2 ADD SWAP1 PUSH2 0x821 SWAP2 SWAP1 PUSH2 0xA89 JUMP JUMPDEST POP JUMPDEST POP SWAP3 SWAP2 POP POP JUMP JUMPDEST PUSH0 PUSH3 0xFFFFFF DUP3 AND SWAP1 POP SWAP2 SWAP1 POP JUMP JUMPDEST PUSH2 0x841 DUP2 PUSH2 0x82A JUMP JUMPDEST DUP3 MSTORE POP POP JUMP JUMPDEST PUSH0 PUSH1 0x20 DUP3 ADD SWAP1 POP PUSH2 0x85A PUSH0 DUP4 ADD DUP5 PUSH2 0x838 JUMP JUMPDEST SWAP3 SWAP2 POP POP JUMP JUMPDEST PUSH0 PUSH20 0xFFFFFFFFFFFFFFFFFFFFFFFFFFFFFFFFFFFFFFFF DUP3 AND SWAP1 POP SWAP2 SWAP1 POP JUMP JUMPDEST PUSH0 PUSH2 0x889 DUP3 PUSH2 0x860 JUMP JUMPDEST SWAP1 POP SWAP2 SWAP1 POP JUMP JUMPDEST PUSH2 0x899 DUP2 PUSH2 0x87F JUMP JUMPDEST DUP3 MSTORE POP POP JUMP JUMPDEST PUSH0 PUSH1 0x20 DUP3 ADD SWAP1 POP PUSH2 0x8B2 PUSH0 DUP4 ADD DUP5 PUSH2 0x890 JUMP JUMPDEST SWAP3 SWAP2 POP POP JUMP JUMPDEST PUSH0 DUP2 SWAP1 POP SWAP2 SWAP1 POP JUMP JUMPDEST PUSH0 PUSH2 0x8DB PUSH2 0x8D6 PUSH2 0x8D1 DUP5 PUSH2 0x860 JUMP JUMPDEST PUSH2 0x8B8 JUMP JUMPDEST PUSH2 0x860 JUMP JUMPDEST SWAP1 POP SWAP2 SWAP1 POP JUMP JUMPDEST PUSH0 PUSH2 0x8EC DUP3 PUSH2 0x8C1 JUMP JUMPDEST SWAP1 POP SWAP2 SWAP1 POP JUMP JUMPDEST PUSH0 PUSH2 0x8FD DUP3 PUSH2 0x8E2 JUMP JUMPDEST SWAP1 POP SWAP2 SWAP1 POP JUMP JUMPDEST PUSH2 0x90D DUP2 PUSH2 0x8F3 JUMP JUMPDEST DUP3 MSTORE POP POP JUMP JUMPDEST PUSH0 PUSH1 0x20 DUP3 ADD SWAP1 POP PUSH2 0x926 PUSH0 DUP4 ADD DUP5 PUSH2 0x904 JUMP JUMPDEST SWAP3 SWAP2 POP POP JUMP JUMPDEST PUSH0 DUP1 REVERT JUMPDEST PUSH0 DUP2 SWAP1 POP SWAP2 SWAP1 POP JUMP JUMPDEST PUSH2 0x942 DUP2 PUSH2 0x930 JUMP JUMPDEST DUP2 EQ PUSH2 0x94C JUMPI PUSH0 DUP1 REVERT JUMPDEST POP JUMP JUMPDEST PUSH0 DUP2 CALLDATALOAD SWAP1 POP PUSH2 0x95D DUP2 PUSH2 0x939 JUMP JUMPDEST SWAP3 SWAP2 POP POP JUMP JUMPDEST PUSH0 PUSH1 0x20 DUP3 DUP5 SUB SLT ISZERO PUSH2 0x978 JUMPI PUSH2 0x977 PUSH2 0x92C JUMP JUMPDEST JUMPDEST PUSH0 PUSH2 0x985 DUP5 DUP3 DUP6 ADD PUSH2 0x94F JUMP JUMPDEST SWAP2 POP POP SWAP3 SWAP2 POP POP JUMP JUMPDEST PUSH2 0x997 DUP2 PUSH2 0x930 JUMP JUMPDEST DUP3 MSTORE POP POP JUMP JUMPDEST PUSH0 PUSH1 0x20 DUP3 ADD SWAP1 POP PUSH2 0x9B0 PUSH0 DUP4 ADD DUP5 PUSH2 0x98E JUMP JUMPDEST SWAP3 SWAP2 POP POP JUMP JUMPDEST PUSH0 PUSH2 0x9C0 DUP3 PUSH2 0x8E2 JUMP JUMPDEST SWAP1 POP SWAP2 SWAP1 POP JUMP JUMPDEST PUSH2 0x9D0 DUP2 PUSH2 0x9B6 JUMP JUMPDEST DUP3 MSTORE POP POP JUMP JUMPDEST PUSH0 PUSH1 0x20 DUP3 ADD SWAP1 POP PUSH2 0x9E9 PUSH0 DUP4 ADD DUP5 PUSH2 0x9C7 JUMP JUMPDEST SWAP3 SWAP2 POP POP JUMP JUMPDEST PUSH0 DUP1 PUSH1 0x40 DUP4 DUP6 SUB SLT ISZERO PUSH2 0xA05 JUMPI PUSH2 0xA04 PUSH2 0x92C JUMP JUMPDEST JUMPDEST PUSH0 PUSH2 0xA12 DUP6 DUP3 DUP7 ADD PUSH2 0x94F JUMP JUMPDEST SWAP3 POP POP PUSH1 0x20 PUSH2 0xA23 DUP6 DUP3 DUP7 ADD PUSH2 0x94F JUMP JUMPDEST SWAP2 POP POP SWAP3 POP SWAP3 SWAP1 POP JUMP JUMPDEST PUSH0 PUSH1 0x40 DUP3 ADD SWAP1 POP PUSH2 0xA40 PUSH0 DUP4 ADD DUP6 PUSH2 0x890 JUMP JUMPDEST PUSH2 0xA4D PUSH1 0x20 DUP4 ADD DUP5 PUSH2 0x98E JUMP JUMPDEST SWAP4 SWAP3 POP POP POP JUMP JUMPDEST PUSH0 DUP2 ISZERO ISZERO SWAP1 POP SWAP2 SWAP1 POP JUMP JUMPDEST PUSH2 0xA68 DUP2 PUSH2 0xA54 JUMP JUMPDEST DUP2 EQ PUSH2 0xA72 JUMPI PUSH0 DUP1 REVERT JUMPDEST POP JUMP JUMPDEST PUSH0 DUP2 MLOAD SWAP1 POP PUSH2 0xA83 DUP2 PUSH2 0xA5F JUMP JUMPDEST SWAP3 SWAP2 POP POP JUMP JUMPDEST PUSH0 PUSH1 0x20 DUP3 DUP5 SUB SLT ISZERO PUSH2 0xA9E JUMPI PUSH2 0xA9D PUSH2 0x92C JUMP JUMPDEST JUMPDEST PUSH0 PUSH2 0xAAB DUP5 DUP3 DUP6 ADD PUSH2 0xA75 JUMP JUMPDEST SWAP2 POP POP SWAP3 SWAP2 POP POP JUMP JUMPDEST PUSH2 0xABD DUP2 PUSH2 0x87F JUMP JUMPDEST DUP3 MSTORE POP POP JUMP JUMPDEST PUSH2 0xACC DUP2 PUSH2 0x82A JUMP JUMPDEST DUP3 MSTORE POP POP JUMP JUMPDEST PUSH2 0xADB DUP2 PUSH2 0x930 JUMP JUMPDEST DUP3 MSTORE POP POP JUMP JUMPDEST PUSH2 0xAEA DUP2 PUSH2 0x860 JUMP JUMPDEST DUP3 MSTORE POP POP JUMP JUMPDEST PUSH2 0x100 DUP3 ADD PUSH0 DUP3 ADD MLOAD PUSH2 0xB05 PUSH0 DUP6 ADD DUP3 PUSH2 0xAB4 JUMP JUMPDEST POP PUSH1 0x20 DUP3 ADD MLOAD PUSH2 0xB18 PUSH1 0x20 DUP6 ADD DUP3 PUSH2 0xAB4 JUMP JUMPDEST POP PUSH1 0x40 DUP3 ADD MLOAD PUSH2 0xB2B PUSH1 0x40 DUP6 ADD DUP3 PUSH2 0xAC3 JUMP JUMPDEST POP PUSH1 0x60 DUP3 ADD MLOAD PUSH2 0xB3E PUSH1 0x60 DUP6 ADD DUP3 PUSH2 0xAB4 JUMP JUMPDEST POP PUSH1 0x80 DUP3 ADD MLOAD PUSH2 0xB51 PUSH1 0x80 DUP6 ADD DUP3 PUSH2 0xAD2 JUMP JUMPDEST POP PUSH1 0xA0 DUP3 ADD MLOAD PUSH2 0xB64 PUSH1 0xA0 DUP6 ADD DUP3 PUSH2 0xAD2 JUMP JUMPDEST POP PUSH1 0xC0 DUP3 ADD MLOAD PUSH2 0xB77 PUSH1 0xC0 DUP6 ADD DUP3 PUSH2 0xAD2 JUMP JUMPDEST POP PUSH1 0xE0 DUP3 ADD MLOAD PUSH2 0xB8A PUSH1 0xE0 DUP6 ADD DUP3 PUSH2 0xAE1 JUMP JUMPDEST POP POP POP POP JUMP JUMPDEST PUSH0 PUSH2 0x100 DUP3 ADD SWAP1 POP PUSH2 0xBA4 PUSH0 DUP4 ADD DUP5 PUSH2 0xAF0 JUMP JUMPDEST SWAP3 SWAP2 POP POP JUMP JUMPDEST PUSH0 DUP2 MLOAD SWAP1 POP PUSH2 0xBB8 DUP2 PUSH2 0x939 JUMP JUMPDEST SWAP3 SWAP2 POP POP JUMP JUMPDEST PUSH0 PUSH1 0x20 DUP3 DUP5 SUB SLT ISZERO PUSH2 0xBD3 JUMPI PUSH2 0xBD2 PUSH2 0x92C JUMP JUMPDEST JUMPDEST PUSH0 PUSH2 0xBE0 DUP5 DUP3 DUP6 ADD PUSH2 0xBAA JUMP JUMPDEST SWAP2 POP POP SWAP3 SWAP2 POP POP JUMP JUMPDEST PUSH2 0x100 DUP3 ADD PUSH0 DUP3 ADD MLOAD PUSH2 0xBFE PUSH0 DUP6 ADD DUP3 PUSH2 0xAB4 JUMP JUMPDEST POP PUSH1 0x20 DUP3 ADD MLOAD PUSH2 0xC11 PUSH1 0x20 DUP6 ADD DUP3 PUSH2 0xAB4 JUMP JUMPDEST POP PUSH1 0x40 DUP3 ADD MLOAD PUSH2 0xC24 PUSH1 0x40 DUP6 ADD DUP3 PUSH2 0xAC3 JUMP JUMPDEST POP PUSH1 0x60 DUP3 ADD MLOAD PUSH2 0xC37 PUSH1 0x60 DUP6 ADD DUP3 PUSH2 0xAB4 JUMP JUMPDEST POP PUSH1 0x80 DUP3 ADD MLOAD PUSH2 0xC4A PUSH1 0x80 DUP6 ADD DUP3 PUSH2 0xAD2 JUMP JUMPDEST POP PUSH1 0xA0 DUP3 ADD MLOAD PUSH2 0xC5D PUSH1 0xA0 DUP6 ADD DUP3 PUSH2 0xAD2 JUMP JUMPDEST POP PUSH1 0xC0 DUP3 ADD MLOAD PUSH2 0xC70 PUSH1 0xC0 DUP6 ADD DUP3 PUSH2 0xAD2 JUMP JUMPDEST POP PUSH1 0xE0 DUP3 ADD MLOAD PUSH2 0xC83 PUSH1 0xE0 DUP6 ADD DUP3 PUSH2 0xAE1 JUMP JUMPDEST POP POP POP POP JUMP JUMPDEST PUSH0 PUSH2 0x100 DUP3 ADD SWAP1 POP PUSH2 0xC9D PUSH0 DUP4 ADD DUP5 PUSH2 0xBE9 JUMP JUMPDEST SWAP3 SWAP2 POP POP JUMP JUMPDEST PUSH0 DUP2 SWAP1 POP SWAP2 SWAP1 POP JUMP JUMPDEST PUSH0 PUSH2 0xCC6 PUSH2 0xCC1 PUSH2 0xCBC DUP5 PUSH2 0xCA3 JUMP JUMPDEST PUSH2 0x8B8 JUMP JUMPDEST PUSH2 0x930 JUMP JUMPDEST SWAP1 POP SWAP2 SWAP1 POP JUMP JUMPDEST PUSH2 0xCD6 DUP2 PUSH2 0xCAC JUMP JUMPDEST DUP3 MSTORE POP POP JUMP JUMPDEST PUSH0 PUSH1 0x40 DUP3 ADD SWAP1 POP PUSH2 0xCEF PUSH0 DUP4 ADD DUP6 PUSH2 0x890 JUMP JUMPDEST PUSH2 0xCFC PUSH1 0x20 DUP4 ADD DUP5 PUSH2 0xCCD JUMP JUMPDEST SWAP4 SWAP3 POP POP POP JUMP JUMPDEST PUSH32 0x4E487B7100000000000000000000000000000000000000000000000000000000 PUSH0 MSTORE PUSH1 0x11 PUSH1 0x4 MSTORE PUSH1 0x24 PUSH0 REVERT JUMPDEST PUSH0 PUSH2 0xD3A DUP3 PUSH2 0x930 JUMP JUMPDEST SWAP2 POP PUSH2 0xD45 DUP4 PUSH2 0x930 JUMP JUMPDEST SWAP3 POP DUP3 DUP3 SUB SWAP1 POP DUP2 DUP2 GT ISZERO PUSH2 0xD5D JUMPI PUSH2 0xD5C PUSH2 0xD03 JUMP JUMPDEST JUMPDEST SWAP3 SWAP2 POP POP JUMP INVALID LOG2 PUSH5 0x6970667358 0x22 SLT KECCAK256 0xC4 0xA9 0xB9 0xF8 PUSH16 0xAF11A640081DAFB55692B58EBA39968 0xE4 SWAP8 DUP8 CREATE SHR 0xC1 PUSH31 0x4269359164736F6C6343000817003300000000000000000000000000000000 "
				},
				"gasEstimates": {
					"creation": {
						"codeDepositCost": "696200",
						"executionCost": "infinite",
						"totalCost": "infinite"
					},
					"external": {
						"LINK()": "396",
						"WETH()": "395",
						"linktoken()": "infinite",
						"poolFee()": "332",
						"routerAddress()": "440",
						"swapExactInputSingle(uint256)": "infinite",
						"swapExactOutputSingle(uint256,uint256)": "infinite",
						"swapRouter()": "infinite"
					}
				},
				"methodIdentifiers": {
					"LINK()": "1b6b6d23",
					"WETH()": "ad5c4648",
					"linktoken()": "2ae7543f",
					"poolFee()": "089fe6aa",
					"routerAddress()": "3268cc56",
					"swapExactInputSingle(uint256)": "73bd43ad",
					"swapExactOutputSingle(uint256,uint256)": "c4b69a18",
					"swapRouter()": "c31c9c07"
				}
			},
			"storageLayout": {
				"storage": [
					{
						"astId": 164,
						"contract": "contracts/SingleSwap.sol:SingleSwap",
						"label": "linktoken",
						"offset": 0,
						"slot": "0",
						"type": "t_contract(IERC20)143"
					}
				],
				"types": {
					"t_contract(IERC20)143": {
						"encoding": "inplace",
						"label": "contract IERC20",
						"numberOfBytes": "20"
					}
				}
			},
			"userdoc": {
				"kind": "user",
				"methods": {
					"swapExactInputSingle(uint256)": {
						"notice": "swapExactInputSingle swaps a fixed amount of LINK for a maximum possible amount of WETH using the LINK/WETH 0.3% pool by calling `exactInputSingle` in the swap router."
					},
					"swapExactOutputSingle(uint256,uint256)": {
						"notice": "swapExactOutputSingle swaps a minimum possible amount of LINK for a fixed amount of WETH."
					}
				},
				"version": 1
			}
		}
	}
}